:020000040800F2
:1000000058160020A5010008831D0008011C0008E7
:10001000811D0008F90A00088D2A00080000000070
:100020000000000000000000000000007325000830
:100030000D0B000800000000851D00087525000854
:10004000BF010008BF010008BF010008BF01000890
:10005000BF010008BF010008BF010008BF01000880
:10006000BF010008BF010008BF010008BF01000870
:10007000BF010008BF010008BF010008BF01000860
:10008000BF010008BF010008BF010008BF01000850
:10009000BF010008BF010008BF010008BF01000840
:1000A000BF010008BF010008BF010008BF01000830
:1000B000BF0100080000000000000000BF010008B0
:1000C000BF0100080000000000000000BF010008A0
:1000D00000000000BF010008BF0100080000000090
:1000E000BF010008BF010008000000000000000080
:1000F0000000000000000000000000000000000000
:10010000000000000000000000000000BF01000827
:100110000000000000000000BF010008BF0100084F
:10012000BF010008BF010008BF010008BF010008AF
:10013000BF010008000000000000000000000000F7
:10014000BF010008BF010008BF010008BF0100088F
:10015000BF010008BF010008BF010008BF0100087F
:10016000BF010008BF010008BF0100080000000037
:10017000BF010008BF0100080000000000000000EF
:10018000BF010008BF010008BF010008DFF810D060
:1001900000F0EAFA00480047F13D0008AFF30080A4
:1001A000581600200648804706480047FEE7FEE74D
:1001B000FEE7FEE7FEE7FEE7FEE7FEE7FEE7FEE717
:1001C000712600088D0100082DE9F05F054600202A
:1001D00092469B4688460646814640241BE02846B8
:1001E00041464746224600F0D9F953465A46C01ABE
:1001F000914110D311461846224600F0C0F92D1A3D
:1002000067EB01084F4622460120002100F0B7F9B4
:1002100017EB00094E41201EA4F10104DFDC484623
:1002200031462A46434600F000B830BCBDE8C09FC6
:10023000D2B201E000F8012B491EFBD27047002228
:10024000F6E710B513460A4604461946FFF7F0FFD5
:10025000204610BD421C10F8011B0029FBD1801A5A
:10026000704700000FB400B58DB010A909900B9035
:1002700000914FF0FF300A9000200C900548069046
:10028000054807906A4609A80F9900F0ABF90DB030
:100290005DF814FB010600081F0600082DE9FF5F4A
:1002A0001D464FF0FF3BD5E9014691465F464FF0B2
:1002B0000008A9697F1C01988847296A82468847F7
:1002C0000028F6D1BAF1FF3F0CD024F4C064002E10
:1002D00019DD600614D5BAF12B0F09D0BAF12D0F34
:1002E0000ED103E0584604B000F07EB844F48064B8
:1002F000A9697F1C01988847761E8246002E02DD80
:10030000BAF1300F03D0B9F1000F26D032E0A9695D
:10031000761E44F400747F1C019888478246002EA4
:1003200005DDBAF1780F06D0BAF1580F03D0B9F154
:10033000000F10D01EE0B9F1000F02D0B9F1100F7C
:1003400018D1A969761E24F400747F1C019888478F
:100350008246102002E0082000E00A20814609E0E1
:1003600008FB0908A969761E44F400747F1C0198F3
:1003700088478246002E05DD4946504600F01EF9AA
:100380000028EDDAE96901988847A00502D46FF0EA
:100390000100A8E7E00725D1600613D5600502D566
:1003A000C8F1000000E0404629680A1D2A6009687B
:1003B000220501D5087015E0220701D5088011E05B
:1003C00008600FE02868011D29600068210502D53A
:1003D00080F8008006E0210702D5A0F8008001E047
:1003E000C0F8008038467EE730BCBDE8C09F2DE9EC
:1003F000FE4F81EA030404F0004421F00041009420
:100400004FF0000B23F0004350EA01045ED052EAA3
:1004100003045BD0C3F30A54C1F30A552C44A4F27D
:10042000F3340194A0FB0254C1F3130141F4801191
:10043000C3F3130343F4801301FB024400FB034E98
:10044000840A970A44EA815447EA8357A4FB076861
:1004500002958D0A05FB07854FEA932C04FB0C548B
:100460002705029D4FEA065847EA1637B5EB0805FF
:100470006EEB070C870E920E47EA811742EA831251
:10048000A7FB0201B6EB0B0164EB00042B0D43EA62
:100490000C335E1844EB1C50DA465146E7FB020170
:1004A000C5F313044FEA0B3343EA14534FEA043203
:1004B000019C43EA0603A4F10C040294009CCDE9DC
:1004C00000B400F003F903B000F003B800200146C7
:1004D000F9E730BCBDE8C08F0EB5C10F80EAE0700F
:1004E0000844CA07002140F233438DE80E000A4653
:1004F0000B4600F0EBF803B000BD0EB540F23341FF
:1005000002910021CDE900110A460B4600F0DEF809
:1005100003B000BDC1F30A5210B5C1F3130140F29C
:10052000FF3341F480119A4201DA002010BD40F2FD
:1005300033439A42A2F2334203DC524200F02EF8D7
:1005400010BD904010BD01F0004330B421F00041D7
:1005500050EA010206D00A0DA2F56072C1F3130140
:10056000002A02DC30BC00207047440F44EAC1047A
:10057000C100E01830BC00EBC25000F061B8202A86
:1005800004DB203A00FA02F1002070479140C2F1EA
:10059000200320FA03F3194390407047202A04DB1C
:1005A000203A21FA02F00021704721FA02F3D040EC
:1005B000C2F1200291400843194670473A2800D200
:1005C000303820F02002412A01D3A2F137008842BE
:1005D00001D34FF0FF307047026811441378016077
:1005E00018467047D16004495161044911620021E5
:1005F0001161114600F0D0B8D90500088D07000838
:10060000426842B1016811F8013B23B1521EC0E9B2
:100610000012184670470121C160881E7047426869
:100620005AB1C368016843B983688B4205D0491E3B
:10063000521CC0E90012002070474FF0FF30704795
:100640000029A8BF7047401C490008BF20F00100E6
:10065000704710B4B0FA80FC00FA0CF050EA0104C4
:1006600004BF10BC704749B1CCF1200421FA04F456
:1006700011FA0CF118BF012121430843A3EB0C012F
:10068000CB1D4FEA00614FEA102042BF002010BC92
:10069000704700EBC35010440029A4BF10BC704742
:1006A000401C490008BF20F0010010BC704710B585
:1006B000141E73F1000408DA401C41F10001921885
:1006C0005B411A4301D120F0010010BD2DE9F04D2E
:1006D00092469B4611B1B1FA81F202E0B0FA80F283
:1006E00020329046FFF74BFF04460F4640EA0A00CF
:1006F00041EA0B0153465A46084313D0114653EAC8
:10070000010019D0C8F140025046FFF747FF0546E7
:100710000E46504659464246FFF731FF084305D082
:10072000012004E020463946BDE8F08D0020054355
:1007300046EAE0762C4337430A986305E40AA0EBC7
:1007400008000022FD0A44EA47540A3002D500207E
:100750000146E9E7010510196941DDE9084500197D
:100760006941BDE8F04DA2E7064C074D06E0E068A0
:1007700040F0010394E8070098471034AC42F6D3E8
:10078000FFF708FDD0460008F0460008C0B24FF45D
:10079000F05100F09DB900002DE9F34F8BB04FF000
:1007A000000801F10C000C464FF0010B46460DF11C
:1007B000080A01906269012101989047051E2DD019
:1007C000252D2CD0216A8847C0B16269012101988A
:1007D0009047216A88470028F7D1411E6269019835
:1007E000904700E0761CA1690B988847216A8847EA
:1007F0000028F7D1E1690B988847DBE7A1690B98DE
:1008000088470746A84201D1761CD3E7E1690B98D7
:1008100088477F1C02D1B8F1000F6FD047E1002755
:1008200062693D463946019890472A2804D1626999
:100830000121019890470125DFF888926269012122
:1008400001989047A0F130010A290AD24F45E5DC12
:1008500007EB870100EB4107303FDFD445F010057F
:10086000ECE7E90601D46FF000476C280AD04C2869
:1008700014D0682815D06A280DD074281CD07A2886
:100880001AD01DE062690121019890476C2802D0BE
:1008900045F0040514E045F002050DE045F02005A3
:1008A0000AE06269012101989047682802D045F06A
:1008B000080505E045F4006562690121019890474B
:1008C000C4E9015765283DD019DC58287AD00CDCE2
:1008D000452837D004DC252826D0412831D131E005
:1008E00046282FD047282CD12CE05B2877D06128D0
:1008F00028D063287CD0642823D15AE0D1E06F2827
:1009000048D008DC66281DD067281BD0692821D074
:100910006E2816D127E0702845D0732868D0752836
:1009200047D078280DD14DE0A1690B98884705463E
:1009300025283FF469AFE1690B9888476D1C3FF4A7
:100940006AAFB4E023466A466FF001000B99AFF33B
:1009500000809FE045F040006060A80723464FF00C
:10096000000236D43EE0E8077FF447AF2068011D5F
:1009700021600068290501D506701BE7290701D50C
:10098000068017E7A90703D5F117C0E9006111E751
:1009900006600FE745F040006060A80723464FF06F
:1009A000080216D41EE040F60E0125EA0100606040
:1009B00016E045F040006060A80723464FF00A02A9
:1009C00007D40FE045F040006060A80708D5234633
:1009D00010226FF001000B99AFF300805AE007E09E
:1009E000234610226FF001000B99FFF757FC51E0EE
:1009F0004FF000094F464B46632802D05B2807D0D2
:100A000041E02079C00601D40120A06001273AE02E
:100A100062690121019890475E2805D14FF00109D4
:100A20006269494601989047216939B900210A460F
:100A3000534643F82120491C0829FADBB0B3216949
:100A400069B9C11700EBD16253110AEB830122F09F
:100A50001F02821A01200B68904003430B606269F9
:100A60000121019890475D28E8D1B9F1000F09D024
:100A70000020514651F82020D24341F82020401C4C
:100A80000828F7DB02AB224600976FF001000B99B4
:100A9000AFF3008000280CDA401C08D1BBF1000F36
:100AA00005D04FF0FF300DB000F00EB8FFE7404624
:100AB000F9E7E90701D108F1010806444FF0000BFE
:100AC00078E60000CCCCCC0C30BCBDE8C08F000078
:100AD0007F2801D9002208E0064A02EB5002C00735
:100AE000127800D1120902F00F0201209040084054
:100AF0007047000090460008FEE700000122114602
:100B0000014800F0F5B800000004004870470022DA
:100B1000AFF3008030B50E4B054601205C7A012C06
:100B200015D8587A00241C54587A03EB800045608D
:100B30005D7A03F108002A54587A421C5A72303008
:100B400008703A2048702F208870CC70002030BD8B
:100B50004C1200202DE9F84FDFF870B10023012777
:100B60004FF0030A4FF00F090BF1040EA7E000BF8E
:100B700007FA03F6324070D04C68022C01D0122CD8
:100B800010D1DC0800EB8408D8F820405D074FEA5C
:100B9000D56C09FA0CF5AC430D6905FA0CF5254343
:100BA000C8F82050D0F800805D0091F804C00AFA1F
:100BB00005F40CF0030C28EA04080CFA05FC4CEAD6
:100BC000080CC0F800C0D1F804C0BCF1010F08D077
:100BD000BCF1020F05D0BCF1110F02D0BCF1120F15
:100BE00016D1D0F808C0D1F80C802CEA040C08FA11
:100BF00005F848EA0C08C0F80880D0F804C02CEAD0
:100C0000060C0E79C6F300169E4046EA0C064660B6
:100C1000C668A6438C68AC403443C4604C68E400AA
:100C20004CD52B4C256E45F001052566246E23F02E
:100C3000030504F001040094264C2E19B4689D07A6
:100C40004FEA157C09FA0CF5AC43B0F1904F05D092
:100C5000214DA84204D1012508E02FE0002505E040
:100C60001E4DA84201D1022500E0072505FA0CF52A
:100C70002543B560DBF800405D464E689443F603BB
:100C800000D514432C60DEF8004075464E6894434E
:100C9000B60300D514432C600C4D08352C684E6803
:100CA0009443F60200D514432C60084D0C352C6893
:100CB0004E689443B60200D514432C605B1C0A684E
:100CC00032FA03F47FF454AF00F00AB80004014094
:100CD00000100240000001400004004800080048E5
:100CE00018BCBDE8E08F0069084000D001207047C3
:100CF0000AB18161704781627047000001488068D5
:100D0000704700005C00002002488168426811447E
:100D1000816070475C00002010B50024032000F0C3
:100D200063F8002000F008F808B1012401E000F0A9
:100D300025F8204610BD000070B50E4E0546002473
:100D4000706898B14FF47A71B1FBF0F00A49096804
:100D5000B1FBF0F000F07DFE40B9102D06D200226C
:100D60002946501E00F020F8356000E0012420469E
:100D700070BD00005C00002068000020094808B534
:100D8000016E41F001010166016E01F00101009167
:100D9000816D41F080518165806D00F08050009040
:100DA00008BD000000100240F0B40E4B1B680C465A
:100DB000C3F30223C3F10705042D00D90425191D2F
:100DC000072901D2002300E0DB1E012606FA05F107
:100DD000491E214099409E40761E16403143F0BC8A
:100DE00001F06ABE0CED00E0064900F00702086859
:100DF0004FF6FF03184040EA0220034A1043086000
:100E0000704700000CED00E00000FA0502480068A1
:100E100000F4C06070470000007000402DE9F0470A
:100E20000F46050058D0404E306800F00700B84229
:100E300009D2306820F0070038433060306800F095
:100E40000700B84248D12878384CC0072CD06868D1
:100E5000032811D0022812D0216898B14905002931
:100E60003ADAA16821F003010143A160FFF746FFD0
:100E7000804641F2883910E021688901EFE7216856
:100E80008903ECE78907EAE7FFF738FFA0EB0801E1
:100E9000494502D90320BDE8F087A068696800F0E1
:100EA0000C00B0EB810FEFD12878800705D5A06842
:100EB000A96820F0F0000843A060306800F0070047
:100EC000B8420BD9306820F00700384330603068F2
:100ED00000F00700B84201D00120DCE72878400785
:100EE00005D5A068E96820F4E0600843A060287890
:100EF000000706D5A068296920F4605040EAC100C7
:100F0000A06000F03FF8A168094AC1F30311515CE9
:100F100001F01F01C8400749086007480068BDE8A4
:100F2000F047FFF709BF0000002002400010024018
:100F30009C450008680000205C0000200548064928
:100F400000688968054AC1F30221515C01F01F0164
:100F5000C84070476800002000100240DC450008CF
:100F60000548064900688968054AC1F3C221515CF9
:100F700001F01F01C84070476800002000100240C7
:100F8000DC45000870B52549002318468A68CC68FE
:100F900012F00C0204F00306214C4FEA640509D05C
:100FA0000C2A05D0042A32D0082A00D1284670BD68
:100FB000012E10D10B681B0704D4D1F89430C3F371
:100FC000032302E00B68C3F30313164E56F82330D5
:100FD000DAB10C2AEBD1C86800F00300022818D05F
:100FE000032818D01846CA68CB68C2F30212C3F3AC
:100FF00006234343521CB3FBF2F2C868C0F34160BE
:10100000401C4000B2FBF0F070BD184670BD204699
:1010100070BD2046E7E72846E5E7000000100240E3
:101020000024F400AC4500082DE9F84304006ED01C
:10103000FD4DA86800F00C06E86800F00307207872
:10104000C00663D576B10C2E01D1012F0AD0A0695C
:101050000028286878D040F001002860FFF74EFE95
:1010600080465BE02868800702D5A0690028DED0B2
:10107000216A2868000703D5286800F0F00004E022
:10108000D5F89400F02202EA1010814216D90846E1
:1010900000F07AFE00283AD1286840F00800286065
:1010A0002868216A20F0F000084328606868E16938
:1010B00020F47F4040EA0120686015E0286840F095
:1010C000080028602868216A20F0F00008432860A2
:1010D0006868E16920F47F4040EA01206860206A86
:1010E00000F052FE0028D6D1FFF74CFFA968CF4A86
:1010F000C1F30311515C01F01F01C840CC490860E5
:10110000CC480068FFF718FE00287DD12DE0C9E02B
:10111000FFF7F4FDA0EB0800022876D828688007C6
:10112000F6D5286840F0080028602868216A20F079
:10113000F000084328606868E16920F47F4040EAD5
:101140000120686011E0FFE720F001002860FFF750
:10115000D5FD804606E000BFFFF7D0FDA0EB0800FC
:101160000228DAD828688007F6D42078C00740D053
:10117000082E18D00C2E01D1032F14D06068B0F5C2
:10118000803F17D0B0F5A02F286817D020F480300A
:101190002860286820F4802028606068E0B1FFF7AC
:1011A000ADFD804614E02868800322D560680028E1
:1011B00078D01EE0286840F48030EDE740F48020CD
:1011C0002860F7E7FFF79AFDA0EB08006428A4D891
:1011D00028688003F6D50CE0FFF790FD804605E017
:1011E000FFF78CFDA0EB0800642896D828688003E0
:1011F000F6D4207880073BD5042E11D00C2E01D1D7
:10120000022F0DD0E06801E064E1B8E00028286812
:101210001ED040F480702860FFF770FD07460CE098
:10122000286840050CD5E0680028C1D008E000BF60
:10123000FFF764FDC01B022893D828684005F7D546
:101240006868217C20F0F85040EA016068600FE097
:1012500020F480702860FFF751FD074605E000BFCD
:10126000FFF74CFDC01B0228B1D828684005F7D411
:101270002078000729D560690028D5F8940012D09D
:1012800040F00100C5F89400FFF738FD074604E080
:10129000FFF734FDC01B022871D8D5F894008007F1
:1012A000F6D512E04CE120F00100C5F89400FFF7FC
:1012B00025FD074605E000BFFFF720FDC01B022803
:1012C0005DD8D5F894008007F6D42078400766D51D
:1012D000A86D0027C00008D4A86D40F08050A86514
:1012E000A86D012700F08050009053480168C9059F
:1012F00012D40168814641F480710160FFF7FEFC61
:10130000804605E0FFF7FAFCA0EB0800022836D87B
:10131000D9F80000C005F5D5A068012816D0052829
:10132000D5F8900017D020F00100C5F89000D5F84E
:10133000900020F0040000BFC5F89000A06841F2C2
:101340008839C0B1FFF7DAFC80460FE0D5F890008D
:1013500040F00100F0E740F00400C5F89000F5E728
:10136000FFF7CCFCA0EB0801494508D8D5F8900060
:101370008007F5D50EE0FFF7C1FC804606E07CE073
:10138000FFF7BCFCA0EB0801494576D8D5F89000E2
:101390008007F5D41FB1A86D20F08050A865207893
:1013A000800628D5606A0028D5F8980012D040F051
:1013B0000100C5F89800FFF7A1FC074605E000BF53
:1013C000FFF79CFCC01B022857D8D5F8980080076F
:1013D000F6D510E020F00100C5F89800FFF78EFC6C
:1013E000074604E0FFF78AFCC01B022871D8D5F835
:1013F00098008007F6D4A06AF0B30C2E71D00228B2
:10140000286820F0807028601AD02868000103D472
:10141000E86820F00300E860E86808490840E860F0
:10142000FFF76CFC044657E0001002409C450008A2
:10143000680000205C00002000700040FFFFEEFE0E
:10144000FFF75CFC064604E0FFF758FC801B02280F
:101450003FD828688001F7D4F4E90B016FF00F0240
:1014600002EB01110843218A4908520402EB415161
:10147000A26841EA022101E064E02AE00843217DFC
:101480004FF07E42490802EB41610843217B40EA6C
:10149000C160E9682C4A11400843E860286840F0C0
:1014A00080702860E86840F08070E860FFF726FCF4
:1014B000044604E0FFF722FC001B022809D8286834
:1014C0008001F7D53EE000BFFFF718FC001B0228A3
:1014D00002D90320BDE8F88328688001F4D431E004
:1014E000FFE70128F6D0E868E26A00F003019142C4
:1014F00026D1216B00F070020901103991421FD1F1
:10150000626B00F4FE41B1EB022F19D194F8382040
:1015100000F07841B1EBC26F12D1A18F00F4C0028C
:1015200049084905A1F50011914209D194F84010EC
:1015300000F0C06049084906A1F10071814201D064
:101540000120C7E70020C5E78C809D0190F85D0071
:1015500070472DE9F041040005D00025A56294F8FC
:101560005D0018B107E00120BDE8F08184F85C500F
:10157000204600F045F8022384F85D3020680168B9
:1015800021F040010160E0684FF4E066B04201D90B
:10159000002101E04FF48051B0F5706F02D0B042ED
:1015A00000D0A562276B012227B9B04201D923637D
:1015B00000E02263D4E901031843D4E9043633433D
:1015C0001843238B03F400731843E3691843236A19
:1015D0001843A36A184323681860636B606AA6699E
:1015E00018430427E36807EA1646334318430843C1
:1015F00021684860256684F85D200020B4E700007B
:1016000010B586B0044614216846FEF718FE13494B
:10161000206888421FD11248016E41F48051016652
:10162000016E01F480510591C16C41F00101C1646A
:10163000C06C694600F001000590C22000900220B5
:1016400001900020029003200390052004904FF0A9
:101650009040FFF77FFA06B010BD00000030014057
:10166000001002402DE9F84F044690F85C00002776
:101670001D461646894601280DD04FF0010B84F80F
:101680005CB0FFF73BFB804694F85D00BA4601284A
:1016900004D002279FE0022000F0A3B8B9F1000FA8
:1016A0006FD0002E6DD0032084F85D00C4F860A0D8
:1016B000C4F83890A687E687C4F840A0A4F844A0F0
:1016C000A4F846A0C4F850A0C4F84CA0A068B0F597
:1016D000004F04D12068016841F480410160206816
:1016E0000168490603D4016841F040010160E068E7
:1016F000B0F5E06F606823D908B1012E1CD1A06B52
:1017000021680088C86006E020688168890709D5DB
:10171000A16B0988C160A06B801CA063E08F401E94
:10172000E08709E0FFF7EAFAA0EB0800A84202D33D
:10173000681C01D046E0ADB3E08F0028E4D136E06C
:1017400008B1012E30D1E08F0128A06B03D92168A8
:101750000088C8600FE021680078087314E0E08713
:1017600022E020688168890714D5E18F0129A16BE7
:1017700008D90988C160A06B801CA063E08F801E1F
:10178000EDE727E009780173A06B401CA063E08FB0
:10179000401EE4E7FFF7B2FAA0EB0800A84202D32C
:1017A000681C01D00EE06DB1E08F0028D9D142460F
:1017B0002946204600F0FAFD08B120202066A068E6
:1017C00010B105E0032706E02068C168806800903A
:1017D000206E00B1012784F85DB084F85CA0384623
:1017E0005AE718BCBDE8E08F2DE9F05F044690F899
:1017F0005C0000270A9E1D4692468B464FF0010969
:1018000001280ED0012084F85C00FFF777FA8046AB
:1018100094F85D00616801280CD0B1F5827F07D192
:1018200002E0022000F011B9A16809B9042801D032
:10183000022700E1BBF1000F24D0BAF1000F21D044
:1018400005B394F85D00042802D0052084F85D00FB
:1018500000202066C4F840A0A4F84650A4F84450E4
:10186000C4F838B0E587A587E0642065E0684FF4E8
:10187000E061884201D8012D06D92068426822F42F
:10188000805205E00127D6E02068426842F4805289
:10189000426020680268520603D4026842F04002A7
:1018A0000260E0688842606845D908B1012D3AD1EC
:1018B000A06B21680088C860A06B801CA063E08FCB
:1018C000401EE0872FE02068816889070FD5E18FEF
:1018D00069B1B9F1010F0AD1A16B0988C160A06B90
:1018E000801CA063E08F401EE0874FF00009206855
:1018F0008168C9070FD0B4F8461061B1C068216C87
:101900000880206C801C2064B4F84600401EA4F8B7
:1019100046004FF00109FFF7F1F9A0EB0800B042D3
:1019200001D3701C75D1E08F0028CCD1B4F84600EB
:101930000028C8D176E008B1012D6CD1E08F0128D4
:10194000A06B08D921680088C860A06B801CA063C8
:10195000E08F801E07E0216800780873A06B401CB0
:10196000A063E08F401EE08755E02068816889070A
:101970001AD5E18FC1B1B9F1010F15D1E18F01295C
:10198000A16B07D90988C160A06B801CA063E08FA0
:10199000801E06E009780173A06B401CA063E08FF5
:1019A000401EE0874FF0000920688168C90728D0F1
:1019B000B4F8461029B3B4F84610012914D9C06808
:1019C000216C0880206C801C2064B4F84600801EC6
:1019D000A4F84600B4F84600012810D820684168F1
:1019E00041F4805141600AE0007B216C0870206C5A
:1019F000401C2064B4F84600401EA4F846004FF096
:101A00000109FFF77BF9A0EB0800B04202D3701C7C
:101A100001D018E0BEB1E08F0028A6D1B4F846008E
:101A20000028A2D142463146204600F0BFFC10B14A
:101A3000012720202066012084F85D00002084F822
:101A40005C003846EEE60327F5E730BCBDE8C09FF2
:101A5000704710B5401EB0F1807F01D3012010BD4A
:101A60004FF0E02460610F21601701F025F800209D
:101A7000A06107202061002010BD10B5FFF7E8FF2E
:101A800010BD10B5040002D0606F10B107E0012056
:101A900010BD002084F87000204600F025F82420B6
:101AA00060672068016821F001010160204600F0B4
:101AB00091FE0128ECD0606A10B1204600F0FAFDDA
:101AC0002068416821F4904141602068816821F0DC
:101AD0002A0181602068016841F00101016020460F
:101AE000BDE8104000F04ABE10B586B0044614218F
:101AF0006846FEF7A4FB13492068884220D11248AB
:101B0000016E41F480410166016E01F4804105914E
:101B1000C16C41F00101C164C06C694600F0010074
:101B200005904FF4C06000900220019000200290C8
:101B300003200390072004904FF09040FFF70AF82D
:101B400006B010BD00380140001002402DE9F843F6
:101B50000446406F1F4616460D4620284ED1CDB193
:101B6000C6B194F87000012848D0012084F87000B4
:101B70004FF00008C4F87C8021206067FFF7BEF8B2
:101B8000A4F850608146A4F85260A068B0F5805F68
:101B900003D004E00120BDE8F883206910B12E468F
:101BA000002510E000260EE08021204600F02CFFEA
:101BB000B8B9C6B116F8010B21680885B4F852000F
:101BC000401EA4F85200B4F852004B464FF00002F9
:101BD00000970028E8D14FF04001204600F014FFA4
:101BE00030B10320D7E735F8020BC0F30800E3E774
:101BF0002020606784F870800020CCE70220CAE7CC
:101C0000FEE7000010B504490448FEF780FF0249D2
:101C1000491E087010BD0000510000203C0000204B
:101C2000F0B587B014216846FEF709FB2D48C16C5A
:101C300041F00101C164C16C01F001010591C16C69
:101C400041F00201C164C06C274E00F00200059013
:101C5000012281213046FFF74BF812218F06002226
:101C60003846FFF745F8002228213046FFF740F8B4
:101C70008120009001250024CDE9015469463046B9
:101C80000394FEF767FF12200090CDE901546946E6
:101C900038460394FEF75EFF2802CDE9000469464A
:101CA00038460294FEF756FF20200090CDE90154FB
:101CB000694630460394FEF74DFF40F60100CDE93A
:101CC0000004694638460294FEF744FF082000905D
:101CD000CDE90154694630460394FEF73BFF07B057
:101CE000F0BD000000100240000400480D480C49FF
:101CF0004FF4E06201604FF4827141600021C0E95D
:101D000002124FF400720161C0E905122022C0E9FD
:101D10000721416281620A21C162FFF71ABC0000FB
:101D200000300140740000200948084901604FF468
:101D300096414160002181600C22C160C0E904121B
:101D40008161C16101624162FFF79BBE00380140C1
:101D5000D80000200948084901604FF4165141603D
:101D6000002181600C22C160C0E904128161C1615F
:101D700001624162FFF785BE004400405801002027
:101D8000FEE7704770470000F8B51C4D064600247A
:101D9000A86DC00002D5FFF739F80DE0A86D40F03E
:101DA0008050A865A86D00F080500090FFF72EF8D5
:101DB000A96D21F08051A965B0F5007F04D0802E77
:101DC00007D94FF003040AE0802E08D9A02E01D8CD
:101DD00004E001D1022402E0702E00D10124084861
:101DE000016821F0070121430160006800F007004D
:101DF000A04201D00120F8BD0020F8BD0010024033
:101E0000002002407CB541F6FF75FEF777FE002406
:101E1000FF2000F009FB641C0A2CF9DB00F0BEFA7D
:101E200040208DF8000000208DF801008DF80200A0
:101E30008DF803008DF8040095208DF8050000242E
:101E40006E46305D00F0F0FA641C062CF9DB00E011
:101E50006D1E00F0CFFA012801D0002DF8D1FEF759
:101E60004DFEFF2000F0E0FA0149012048707CBDE2
:101E70005700002010B5064C3220207000F0BAFA4E
:101E800000F0B8FAFF2802D021780029F8D110BD5F
:101E9000560000202DE9F041114D04460A200E465F
:101EA00085F8000000F0A6FAFF2804D0FE2806D02E
:101EB0000020BDE8F08128780028F3D1F8E7274614
:101EC000651C00F097FA38706C1C00F093FA2870CB
:101ED000B61EF4D100F08EFA00F08CFA0120E8E78B
:101EE0005500002070B50C460546FFF7C3FFFF28DC
:101EF00001D0FF2070BD284600F096FA200E00F0B9
:101F000093FAC4F3074000F08FFAC4F3072000F0FF
:101F10008BFAE0B200F088FA0020402D06D0482D60
:101F200006D000F081FA4C2D06D007E0952000E0A5
:101F3000872000F079FA01E000F05CFA5FF00A0413
:101F400000F058FA0106D5D5641E14F0FF04F7D14D
:101F500070BD000070B50E4604460025FFF78AFFED
:101F6000FF2828D1304600F05FFAFD2E1FD0002652
:101F7000207800F059FA6078A41C00F055FA761E1B
:101F800016F0FF06F4D100F035FA00F033FA00BF86
:101F900000F030FA044600F01F00052803D06D1C45
:101FA000EDB2402DF4D900F025FA0028FBD004F062
:101FB0001F00052801D0002070BD012070BD000069
:101FC0002DE9F84310B10120BDE8F883DFF8208146
:101FD00098F80000800702D598F80000F4E7FFF7B2
:101FE00011FF00F0DBF9002421464020FFF77AFFC3
:101FF00001286CD13F4E642030704FF4D5714820D9
:10200000FFF770FF01280DD000217720FFF76AFF4E
:1020100001283ED800216920FFF764FF012838D845
:1020200002243DE000256F4600F0E4F978556D1C70
:10203000EDB2042DF8D39DF80200012847D19DF898
:102040000300AA2843D1450700217720FFF74AFF64
:10205000012804D829466920FFF744FF10B13078E1
:102060000028F1D1307890B300217A20FFF73AFFB1
:1020700068BB002400F0BEF93855641CE4B2042C9F
:10208000F8D39DF80000400601D506241FE0022485
:102090001DE0012401E0022C02D00021412007E0D4
:1020A00000217720FFF71EFF012804D800216920B6
:1020B000FFF718FF10B130780028ECD1307828B144
:1020C0004FF400715020FFF70DFF00B1002445468A
:1020D00088F80240FEF712FD00F08CF924B1287850
:1020E00020F00100287001E00020687028786BE77C
:1020F00057000020550000207FB515460E4610B150
:10210000042004B070BD01244B48052E04D0007893
:10211000C00715D00320F4E747492A7849782AB147
:10212000012A07D0022A08D0042482E031B100211C
:10213000417003E0FFF766FE00E06970002478E07C
:1021400000F02CF90B2E52D005DCE6B3012E07D09F
:10215000022E69D142E00C2E4CD00D2E64D155E0F8
:1021600000214920FFF7BEFE70BB10216846FFF733
:1021700091FE48B39DF800100120B0EB911F0AD1E9
:102180009DF808209DF8091000EB02200844000487
:102190008009286038E09DF805009DF80A1000F0DD
:1021A0000F0000EBD1109DF809109DF8072001F0F9
:1021B000030100EB41009DF80810890901EB820141
:1021C0009DF8062001E00DE02FE002F0030201EB94
:1021D0008221C01F491C8140296015E04FF4007026
:1021E000288011E0FFF746FEFF280DD01DE00021FA
:1021F000492001E000214A20FFF774FEA8B9102110
:102200002846FFF747FE80B100240EE000217A2027
:10221000FFF768FE40B9002400F0ECF8641CE4B25B
:1022200005F8010B042CF7D30424FEF767FC00F03B
:10223000E1F8204665E70000570000202DE9F04155
:102240001C4615460E4638B934B121480178C907F5
:1022500004D00320BDE8F0810420FBE7807840072C
:1022600000D4550200F09AF84FF40077012C29466B
:1022700004D05220FFF736FE70B11AE05120FFF76C
:1022800031FEE0B939463046FFF704FEB8B1FEF73B
:1022900035FC00F0AFF818E039463046FFF7FAFD9C
:1022A00018B1641E06F50076F6D100214C20FFF728
:1022B00019FEFEF723FC00F09DF824B905E0FEF7B7
:1022C0001DFC00F097F80120C4E70020C2E70000E1
:1022D0005700002008B1012070470148007870477E
:1022E000570000202DE9F0411C4616460F4638B92C
:1022F00034B1294D2878C00704D00320BDE8F0810F
:102300000420FBE72878400701D50220F6E7A878EB
:10231000400700D4560200F041F8012C10D0A878F4
:10232000800707D500217720FFF7DCFD21465720E5
:10233000FFF7D8FD31465920FFF7D4FD78B11CE0F6
:1023400031465820FFF7CEFDF0B9FE213846FFF7A1
:1023500001FEC8B1FEF7D2FB00F04CF819E0FC21F9
:102360003846FFF7F7FD18B1641E07F50077F6D180
:10237000FD210020FFF7EEFD30B1FEF7BFFB00F0BE
:1023800039F834B10120B9E7FEF7B8FB00F032F8B4
:10239000F8E70020B2E700005700002000220121EA
:1023A0000148FEF7A5BC000000040048F8B515463A
:1023B0000E460B460092044600224FF4C05100F036
:1023C00043F888B93346002280212046009500F06A
:1023D00086F848B9334600224FF4C0612046009584
:1023E00000F032F8002804D0206E40F02000206673
:1023F0000320F8BD0EB5FF208DF8080000208DF8F1
:1024000004000848FFF7A2F80128FAD14FF47A70C7
:102410000090012301AA02A90248FFF7E5F99DF8FF
:1024200004000EBD7400002001B50648FFF78EF8C9
:102430000128FAD14FF47A73012269460148FFF767
:1024400011F908BD740000202DE9F0471D4617461C
:102450000E4604464FF4C068DDF820900CE0464577
:1024600001D107B9007B681C06D0FEF747FCA0EB42
:102470000900A84208D23DB1206881683140B942C4
:10248000EDD10020BDE8F0872068416821F0E0012F
:1024900041606068B0F5827F0BD1A068B0F5004F55
:1024A00002D0B0F5806F04D12068016821F04001AE
:1024B0000160A06AB0F5005F09D12068016821F4CD
:1024C000005101602068016841F400510160012061
:1024D00084F85D00002084F85C000320D2E72DE939
:1024E000F0411D4617460E460446DDF8188008E008
:1024F000681C06D0FEF702FCA0EB0800A8420BD235
:1025000055B12068806836EA000030D00020B8421B
:10251000EED10020BDE8F0812068416821F0E001A3
:1025200041606068B0F5827F0BD1A068B0F5004FC4
:1025300002D0B0F5806F04D12068016821F040011D
:102540000160A06AB0F5005F09D12068016821F43C
:10255000005101602068016841F4005101600120D0
:1025600084F85D00002084F85C000320D2E701209D
:10257000CDE770472DE9F0412348017811B101788A
:10258000491E0170417811B14178491E4170FEF732
:10259000BBFBFFF772FA4FF0904701213846FEF778
:1025A000A2FB1A4C21681A4D884207D02868401CAB
:1025B000286001213846FEF796FB20604FF4006842
:1025C00041463846FEF78FFB124E3168124C884266
:1025D00007D02068401C206041463846FEF783FB48
:1025E0003060296800200C2904D128600B490A6852
:1025F000521C0A6021680C2904D120600848016837
:10260000491C0160BDE8F081550000201800002041
:10261000300000201C0000203400002008000020B2
:102620000C00002010B596B044216846FDF707FE67
:10263000142111A8FDF703FE012000900004019071
:102640000012039002200324CDE90A046846FEF735
:10265000EBFC0F20CDE9110400204FF48061CDE99F
:1026600013011590022111A8FEF7D8FB16B010BD7A
:102670000D48016841F4700101600C48016841F0A7
:1026800001010160002181600268094B1A4002606B
:102690008214C260026822F48022026081610249D1
:1026A000C00380390860704788ED00E000100240E8
:1026B000FFFFF6EA90F82410C90706D001684A68BF
:1026C000836A22F400321A434A6090F82410890782
:1026D00006D501684A68C36A22F480321A434A6008
:1026E00090F82410490706D501684A68036B22F464
:1026F00080221A434A6090F82410090706D5016821
:102700004A68436B22F400421A434A6090F824104E
:10271000C90606D501688A68836B22F480521A4381
:102720008A6090F82410890606D501688A68C36B10
:1027300022F400521A438A6090F82410490611D5F9
:1027400001684A68036C22F480121A434A60016CE3
:10275000B1F5801F06D101684A68436C22F4C002BB
:102760001A434A6090F82410090606D501684A68A1
:10277000806C22F4002202434A607047F8B50026BC
:102780000446C667FEF7BAFA0546206800686FF08F
:102790007E47000708D52B4600224FF40011204643
:1027A000009700F031F960B92068006840070AD549
:1027B0002B4600224FF480012046009700F024F9B8
:1027C00008B10320F8BD20206067A06784F870601E
:1027D0000020F8BD2DE9F0410446026880682369B5
:1027E000E5691843636900272B4318437D49136843
:1027F0007D4D2B400343136020684268E36822F458
:1028000040521A4342602268A0698A4201D0236A7A
:102810001843936823F4306303439360734A236837
:10282000734893420DD1D0F8880010F0030006D011
:10283000012838D0022834D0032821D135E00125E1
:102840001FE06C4A93420BD1D0F8880010F00C00C6
:1028500025D0042827D0082823D00C2810D124E024
:102860008B420DD1D0F8880010F4406017D0B0F53D
:10287000806F18D0B0F5006F13D0B0F5406F14D052
:1028800010255D4A00264FF400408B4245D175B1BA
:10289000022D0FD0042D0FD0082D18D10FE00025E8
:1028A000EFE70225EDE70425EBE70825E9E7FEF76A
:1028B00045FB03E0104602E0FEF764FBA8B3626844
:1028C00002EB4201814202D8B0EB023F01D901275D
:1028D00075E0DFF828815DB1022D0CD0042D13D0F6
:1028E000082DF4D150082905401846F1000105E0F3
:1028F000FEF724FB0AE050084149F5E70023FDF705
:1029000063FCA0F5407156E0FEF73CFB6268010EE7
:102910000302500818187141F0E7E1694FF6EF78AB
:1029200081422FD1092DD2D200E048E0DFE805F046
:1029300006092005230505052600C8E7FEF7FEFA6F
:1029400001E0FEF70DFB4100D4F8040001EB50015B
:10295000B1FBF0F080B2A0F110014145B7D84FF6BD
:10296000F0710140C0F3420001432068C16026E0DD
:1029700024496068EAE7FEF705FBE4E74FF480319D
:102980006068E3E7092DA2D2DFE805F006091E051D
:102990002205050525009AE7FEF7D0FA01E0FEF7CB
:1029A000DFFA0146606801EB500100BFB1FBF0F0B7
:1029B00080B2A0F11001414589D82168C86026661F
:1029C00038466666BDE8F081606802EB5001EDE7CD
:1029D000FEF7D8FAE5E7616800EB5100B0FBF1F0D3
:1029E000E6E7000000800040F369FFEF0038014097
:1029F00000100240004400400024F400FFFC0F00DF
:102A0000000024F40048E8012DE9F04198461746FB
:102A10000E460446069D08E0681C06D0FEF76EF9D7
:102A2000A0EB0800A8420BD855B12068C06936EA6F
:102A3000000017D00020B842EED00020BDE8F081A1
:102A40002068016821F4D07101602068816821F05C
:102A50000101816020206067A067002084F8700079
:102A60000320EBE70120E6E710B5FFF7A9FA0249DA
:102A70000870087810BD000038000020FFF73CBB4C
:102A8000FFF7DCBBFFF726BCFFF72CBCFEE700001E
:102A90000FB4084B10B504A902AA039800F02CF853
:102AA000044602A9002000F040F9204610BC5DF861
:102AB00014FB00002B2D00080907090E002804DB79
:102AC00000F1E02080F80014704700F00F0000F1E2
:102AD000E02080F8141D704702E008C8121F08C1EA
:102AE000002AFAD170477047002001E001C1121F8F
:102AF000002AFBD1704700002DE9FF4F8BB09A46AA
:102B00000F460446002606E025280BD052460D99B4
:102B10009047641C761C20780028F5D10FB0304611
:102B200000F000B90025A94601227D4900E00543D7
:102B300014F8013F203B02FA03F00842F7D1207855
:102B40002E2817D114F8010F45F004052A280ED0BD
:102B50006FF02F022078A0F1300109290AD809EB83
:102B6000890102EB410100EB0109641CF2E757F80F
:102B7000049B641C20786C280DD004DC4C2812D0F7
:102B80006A2811D104E074280DD07A280CD10AE00B
:102B900045F4001507E0617845F48015814202D1C3
:102BA000641C05F58015641C207869283ED006DC7D
:102BB0000028B3D063280BD0642804D136E07328F2
:102BC00010D075285CD052460D999047761CA5E030
:102BD00017F8040B8DF8000000208DF80100E8467E
:102BE000012003E057F8048B4FF0FF3069074FF0E6
:102BF000000501D40AE06D1C4D450DDA8542FADB73
:102C000018F805100029F6D106E06D1C8542FCDBA2
:102C100018F805100029F8D12E4404E018F8010B2B
:102C200052460D9990476D1EF8D277E000200A9029
:102C3000C5F302504FF00A0B02280CD001CFC11788
:102C4000021E71F100020CDA0023D0EB030063EBEB
:102C500001012D2208E0FF1D27F00707F7E8020118
:102C6000EEE72A0504D52B228DF82420012203E06B
:102C7000EA070FD02022F7E70DF12008089218E0AC
:102C800000200A90C5F302504FF00A0B022803D02F
:102C900001CF00210022EFE7FF1D27F00707F7E82B
:102CA0000201F7E75A460A9BFDF78EFA303208F820
:102CB000012D50EA0102F5D1ADEB080000F1200B27
:102CC000680701D44FF00109D94502DDA9EB0B00DB
:102CD00000E000208146002506E009A85246405D3C
:102CE0000D9990476D1C761C08988542F5DB04E031
:102CF000302052460D999047761CB9F10001A9F198
:102D00000109F5DC05E018F8010B52460D999047D2
:102D1000761CBBF10001ABF1010BF4DC641CFAE69C
:102D20000928010030BCBDE8C08F0A68531C0B6045
:102D3000107070470020044902464FF480630A5423
:102D4000401C9842FBDB70473406002010B5044657
:102D5000002084F80402401EC4F82C02204601F032
:102D600095FA08B1032010BDB4F8FE01A0F52A4180
:102D7000553901D0022010BD94F8360094F839106E
:102D800094F8372040EA016194F83800000440EAE2
:102D9000022001430A48B0EB012F0DD014F8521F56
:102DA000E278637841EA0261A278120442EA0322DF
:102DB0001143B0EB012F01D1002010BD012010BD47
:102DC00000464154F0B50022184B144602EB42066F
:102DD00053F8265085B1D0F80072BD420DD103EBF7
:102DE0008605D0F808626F68B74206D12D89B0F821
:102DF0000662B54204D000E00124521C022AE5D349
:102E0000022A01D079B904E05CB9022909D0122064
:102E1000F0BD02EB420003EB80004089B0F5807FFB
:102E200001D00020F0BD1020F0BD000034120020C1
:102E300030B50021064A0C4601EB410352F82350FD
:102E4000854201D142F82340491C0229F4D330BD08
:102E500034120020D0F82422D0F80002490A90F859
:102E60000202B1FBF0F0121D02CA19B1884203D36D
:102E7000401AF8E700207047116808447047D0F8FE
:102E80001422891E921E8A4201D800207047D0F871
:102E9000282290F8020201FB002070472DE9F04142
:102EA0000F00054606D000F0C3FE02280BD2012019
:102EB000BDE8F081D5F80C621EB1D5F81402B0421D
:102EC00008D8012606E0411CF2D0D5F81412814240
:102ED000EED83E463446D5F81402641CA04202D80F
:102EE0000224022E0AD32146284600F0A1FE38B162
:102EF000411CDDD00128DBD0B442ECD10020D7E763
:102F00006FF070422146284601F0DBF930B957B125
:102F100022463946284601F0D4F920B1012812D0C2
:102F200001242046C4E7C5F80C42D5F81002411C24
:102F3000F7D0401EC5F8100295F8050240F00100D8
:102F400085F80502EDE74FF0FF34EAE72DE9F04799
:102F500089460C6800E0641C21782F29FBD05C298D
:102F6000F9D0D0F818520B222021284601F087F919
:102F7000002001460B460826E25C5B1C202A35D95E
:102F80002F2A33D05C2A31D02E2A01D0B04208D368
:102F9000082E38D12E2A36D108200B268906090E94
:102FA000EAE7802A05D3244F41F003013A4412F89E
:102FB000802C22A700E07F1C97F800C0BCF1000F16
:102FC00002D09445F7D11EE0A2F14107192F02D893
:102FD00041F0020107E0A2F16107192F03D8203A5E
:102FE00041F00101D2B22A54401CC5E71C44C9F883
:102FF0000040202A01D8042200E0002218B12878DD
:10300000E52803D004E00620BDE8F08705202870FD
:10301000082E01D18806010E01F00300012801D11C
:1030200042F01002C1F38100012801D142F00802F0
:10303000EA720020E8E70000E4450008222A2B2C71
:103040003A3B3C3D3E3F5B5D7C7F0000401E0228DA
:1030500015D20C4B00EB400203EB82014889B0F51E
:10306000807F05D008B1401E80B2488110B104E0D5
:103070000020FAE7002043F82200002070470220D9
:1030800070470000341200202DE9F041B0F80662CC
:103090000446761C30040F46000C37D0D4F81002DA
:1030A00098B3310773D1401CC4F81002D4F80C1245
:1030B000D4F8000231B190F80222521E12EA161F13
:1030C00005D064E0B0F80802B0421FD95FE000F01C
:1030D000AFFD054601281ED9681C3AD0D4F800027D
:1030E000D0F81412A94249D87FB1D4F80C12FFF7D6
:1030F000D5FE05000DD0012D0DD0681C29D0D4F8C7
:10310000000201F004FA20BB07E0FFE70420BDE85D
:10311000F0810720FBE70220F9E74FF4007200215D
:10312000D4F8000201F0ABF82946D4F80002FFF70A
:10313000A6FED4F8001200274FF00108C1F82C02B7
:1031400011E000BF80F80482D4F8000201F0DFF93A
:1031500008B10120DBE7D4F80002D0F82C12491C9A
:103160007F1CC0F82C12D4F8000290F80212B94269
:10317000E8D8D0F82C12C91BC0F82C12C4F80C5295
:103180002946D4F80002FFF77AFEC4F81002A4F82A
:103190000662D4F8000206F00F0100EB4110C4F8FB
:1031A00014020020B3E770B50446002100F036F8A1
:1031B00010E0D4F81012D4F8000201F067F858B902
:1031C000D4F814020078E52809D040B10121204646
:1031D000FFF75AFF0028ECD0042809D009E0D4F802
:1031E0001012D4F8000201F051F8050003D013E0EA
:1031F0000720054610E0D4F814022022002104F52F
:10320000007401F03CF8D4E905010B2201F02EF81E
:103210002168012081F80402284670BD70B5A0F82D
:103220000612D0F808320D460446012B40D0D4F8DF
:103230000002D0F8141299423AD933B990F800122A
:10324000032906D1D0F824321BB190F802020601FE
:1032500014E0B0F80812A9422AD9D0F8240214E0E8
:1032600000F0E6FC0346401C20D0022B20D3D4F80B
:103270000002D0F8140298421AD9AD1BD4F800020B
:10328000B5421946ECD2FFF7FAFDC4F80C3278B11A
:1032900000EB1510C4F81002D4F8000205F00F017D
:1032A00000EB4110C4F81402002070BD012070BD75
:1032B000022070BD084910B50B5C002253B90122F1
:1032C0000A540A1801EB8000127A4068016810461F
:1032D00088470246104610BD4C12002030B4054C01
:1032E000231804EB80001B7A406804691846A44642
:1032F00030BC60474C12002030B4054D2C1805EB53
:103300008000247A406885682046AC4630BC60471F
:103310004C120020044A111802EB8000097A406820
:1033200042680846104700004C12002030B4054D9A
:103330002C1805EB8000247A4068C5682046AC460E
:1033400030BC60474C12002010B5044600F04BFA28
:1033500000280DD1204601F00AF9002808D1D4F840
:103360002802FFF773FE002802D10021C4F80012E2
:1033700010BD2DE9F74F14468A46002269462046C3
:1033800000F08EFA24685FEA000859D1D4E9840776
:10339000B91E884202D8CAF8000051E094F80092A1
:1033A0000025B9F1010F02D0D4F8206217E00226FF
:1033B0003146204600F03CFC411C03D0012803D0DC
:1033C00028B105E0012000E0022080462EE06D1CBF
:1033D000D4F81402761C8642EAD327E051B931466C
:1033E000761C204600F052FF5FEA00081ED12046FE
:1033F0004FF40071B9F1020F0DD00278C37890F844
:1034000001C042EA036283781B0443EA0C231A4397
:10341000120106D006E0028802B96D1C801C891ECC
:1034200002E06D1C001D091F7F1ED7D1C4F8105289
:1034300094F8050240F0010084F80502CAF8005033
:10344000404600F000B81EBCBDE8E08F2DE9F74112
:1034500081B0904602980090684600F051FC04004C
:1034600003D50B2004B0BDE8F0810E4E002756F8BE
:10347000245025B12846FFF7DBFC85F8007201983F
:10348000002801D080F8007246F8240002D0B8F17C
:10349000010F01D00020E5E7002202A901A800F0F9
:1034A000FFF9DFE7700000202DE9F747ADF50B7D50
:1034B00006000ED04FF0000802F01F0727F00102AF
:1034C0008CA980A8C6F8008200F0EAF9040005D0B3
:1034D000B9E009200DF50E7DBDE8F08788A886903B
:1034E00068468C9900F044FB859D04000BD11DB10A
:1034F000780803D0012102E0062404E00021684698
:10350000FFF760FC044617F01C0F5FD04FF0010A74
:10351000D4B1042C13D100204D4902E0401C0228F4
:1035200005D200EB400251F82220002AF6D10228F1
:1035300004D06846FFF737FE044600E01224859D5C
:1035400047F0080754B17EE0E87A10F0110F01D07F
:10355000072478E0780701D5082474E0380743D5BC
:1035600000F0CCFBA873010AE973010C2974000E6A
:10357000687485F80B8085F81C8085F81D8085F8B7
:103580001E8085F81F802946809800F027FC814620
:103590000021284600F058FF8099B9F1000F81F80A
:1035A00004A21FD080984946D0F82CA200F004FF56
:1035B000040048D18099A9F10100C1F80C025146DC
:1035C000809800F063FE04000AD03CE0DCBBE87A9F
:1035D000C10601D5042436E0B90701D5C007B7D12B
:1035E000380701D547F020078098D0F82C02C6E9AB
:1035F0008705780801D0012100E00021684600F02D
:103600009DFBC6F8280200B386F8067286F807828A
:103610004746294606F50076809800F0DFFB3061CA
:10362000287FE97F6A7F40EA0160A97F090441EAB7
:1036300002210843C6E90270B76177628098306062
:10364000B0F80602B080204644E70224FBE7000001
:10365000341200202DE9F84F88460021994615467E
:103660000446196000F083FF002812D194F8070285
:1036700000280ED194F80602C00709D0D4E98201CF
:10368000081A01274FF0020A854200D90546A2E038
:10369000072000F0A5B800BFD4F80812C8057CD1F7
:1036A000D4F8000290F80222521E02EA512212F0CF
:1036B000FF0614D131B1D4F8242232B12046FFF7ED
:1036C000C9FB06E0D4F8100203E0D4F8141200F0AD
:1036D000AFFA022823D3411C5BD0C4F81402D4F8FB
:1036E0001412D4F80002FFF7CAFBC0B130440090B6
:1036F000680A5FEA000B2AD0D4F8001206EB0B022E
:1037000091F80202824201D9A0EB060B91F8010266
:103710005B464146009AFFF7EFFDD0BB03E084F81B
:1037200007A20220B5E794F8060240060CD5D4F8AB
:1037300018120098081A584506D208EB40204FF49A
:103740000072214600F092FD4FEA4B2637E0D4F894
:1037500018220098824221D094F8060240060ED525
:10376000D4F800020123214690F80102FFF7DEFDA4
:1037700078B994F8060220F0400084F80602D4F8E4
:1037800000020123214690F80102009AFFF7B4FDE0
:1037900020B184F8077201207BE702E00098C4F8AA
:1037A0001802B4F80802C0F30800C0F50076AE4273
:1037B00000D92E4601193246404600F057FDD4F894
:1037C0000802B0443044C4F80802D9F80000811956
:1037D000AD1BC9F80010002D7FF45EAF002058E744
:1037E00018BCBDE8E08F70B5044600F0C0FE0028AC
:1037F00011D194F806128A060DD5480612D5D4F8D0
:1038000000020123214690F80102D4F81822FFF7A4
:103810008DFD08B1012070BD94F8060220F0400033
:1038200084F80602D4F81C12D4F8000200F02EFD31
:103830000028F0D1D4F82052E87A40F02000E87255
:1038400094F80C022877B4F80C02000A6877D4F8D0
:103850000C02000CA877D4F80C02000EE877D4F81C
:103860001012284604F5007400F0EEFD00F046FA50
:10387000A875010AE975010C2976000E687600200A
:10388000A874E874A07920F02000A07121680120BC
:1038900081F804022068BDE8704000F0DDBD000042
:1038A0002DE9FF474FF000090746C0F80090164683
:1038B000084600F025FA050003D50B2004B0BDE84A
:1038C000F087A84850F82540A4B13C6094F8000265
:1038D00028B194F80102FFF71DFDC1070CD084F850
:1038E0000092E8B284F80102FFF7E4FCC10708D0B7
:1038F0000320E3E70C20E1E70EB1400704D40020E9
:10390000DCE71EB1400701D50A20D7E7002529468C
:103910002046FFF71BFA012827D100214FEA0D07A7
:1039200004EB011090F8C22100F5DF704AB1027A71
:10393000C37A42EA0362837A407A1B0443EA002096
:10394000024347F82120491C0429E9D35FF000060F
:1039500057F826502DB129462046FFF7F7F908B948
:1039600009E00220761C042EF2D3032801D0E8BB24
:1039700001E00120A2E7B4F80B00B0F5007F70D1A0
:10398000E28A6AB994F8240094F8271040EA0162A8
:1039900094F8260094F82510000440EA0120024320
:1039A000C4F81822217C84F80312012901D00229CD
:1039B00057D1607B514384F80202B8B1431E1842CC
:1039C0004FD1B4F81130A4F808321E0749D1B4F829
:1039D00013607EB994F8206094F8237094F821C0A5
:1039E00046EA076694F822703F0400E039E047EAAF
:1039F0000C273E43B4F80EC0BCF1000F31D00CEBE5
:103A0000010707EB1317BE422BD3F61BB6FBF0F0F2
:103A100038B3012640F6F678404500D302264FF62B
:103A2000F678404500D30326801C2F44C4F8287242
:103A3000AC44C4F81402C4E9875C032E13D083B1EC
:103A40006144C4F82412022E21D000F0010100EBE1
:103A5000400001EB500000BF00F2FF10B2EB502F0E
:103A600017D20D202AE7002BFBD194F82C1094F8E4
:103A70002F3094F82D7041EA036194F82E301B0426
:103A800043EA072319438000C4F82412E4E7400006
:103A9000E2E74FF0FF30C4F81002C4F80C028020B7
:103AA00084F80502032E4FD1208E01284CD12046E8
:103AB000691C00F0EBFBE0BB84F80592B4F8FE0152
:103AC000A0F52A4155393FD12078E178627840EA63
:103AD0000160A178090441EA022108432249884291
:103AE00032D194F8E40194F8E71194F8E52140EA22
:103AF000016094F8E611090441EA022108431B49D8
:103B0000884221D194F8E80194F8EB1194F8E92166
:103B100040EA016094F8EA11090441EA02210843ED
:103B2000C4F8100294F8EC0194F8EF1140EA016037
:103B300000E009E094F8EE1194F8ED21090441EA5F
:103B400002210843C4F80C02064984F80062091FE8
:103B50000888401C0880A4F806022046FFF768F990
:103B6000CDE6000070000020525261417272416146
:103B700073B50446019908782F2801D05C2801D13B
:103B8000491C01910025C4F80852019800782028AA
:103B900006D200212046FFF741FBC4F814527CBD39
:103BA00001A92046FFF7D2F90028F8D100212046CC
:103BB000FFF734FB20BB00BFD4F81012D4F800028A
:103BC00000F064FBE0B9D4F814120A7832B1CA7A72
:103BD00012070FD40A23D4F8182203E004200FE0C0
:103BE0005B1E06D311F8015B12F8016BAD1BF7D019
:103BF00000E02DB100212046FFF746FA0028DBD077
:103C0000D4F81812C97A28B10428C8D14907C6D4F3
:103C100005207CBD4907FCD4D4F81412C87AC0062C
:103C2000F6D5D4F8000200F0D9F8C4F80802B7E7D6
:103C30002DE9F0410D46044602290DD3D4F81402B3
:103C4000A84209D994F800024FF0FF36012807D0A6
:103C500002282AD0032836D001263046BDE8F0815C
:103C6000D4F8200205EB550700EB5721204600F061
:103C70000DFB0028F1D1C7F308007F1C14F8008069
:103C8000D4F8200200EB5721204600F0FFFA00286C
:103C9000E3D1C7F30800215C48EA0120E90701D01D
:103CA0000609DAE7C0F30B06D7E7D4F8200200EBE9
:103CB0001521204600F0EAFA0028CED1E8B204EB44
:103CC00040000688C9E7D4F8200200EBD511204651
:103CD00000F0DCFA0028C0D140F2FF1000EA8500B5
:103CE00020440178C27841EA026182784078120467
:103CF00042EA0020014321F07046AEE70020704701
:103D000010B504464FF0FF302268002A13D0114648
:103D100000E0491C0B78212B0ED33A2BF9D112F875
:103D2000013B303B0A2B06D28A4204D1002B02D140
:103D3000491C1846216010BD002010BDF0B5034697
:103D4000254AD3F80042002000EB400552F82560D8
:103D5000A6420BD102EB8505D3F808626F68B74223
:103D600004D12D89B3F80662B54202D0401C022866
:103D7000EAD302281AD1002002E0401C022805D212
:103D800000EB400552F82550002DF6D1022815D041
:103D900000EB400542F8254002EB8504D3F80862A9
:103DA0006660B3F80632238100236381002900EBAB
:103DB000400102EB8101498902D019B10020F0BD18
:103DC000491C01E04FF4807100EB400302EB8302D9
:103DD000401C5181F0BD0000341200200246488B87
:103DE00092F80022032A02D1898A40EA01407047F2
:103DF0002DED028B86B0FCF78FFFFEF713FCFDF76D
:103E00000FFFFDF773FFFDF7FDFEFDF78DFFFDF7DB
:103E1000A1FF4FF0904B4FF4006841465D46584675
:103E2000FCF761FFE44CA06100269FEDE40A3246F6
:103E30008DED030A8021E248FCF75AFF41462846EF
:103E4000FCF751FFA06101212846FCF74CFFE0611F
:103E50000122DCA1DC48FFF7F9FA207004F120020E
:103E6000111DDAA0FFF785FA216AD1F8140291F842
:103E70000212801E4843FCF740FB9FEDD58B53ECAC
:103E8000182BFCF7B4FAFCF745FB0246A062D2A15E
:103E9000D848FEF7FDFDD74800F0C6FAFEF74AFF06
:103EA000206A616A90F802024843FCF726FB53EC53
:103EB000182BFCF79CFAFCF72DFB0246E062CEA122
:103EC000CC48FEF7E5FDCB4800F0AEFAFEF732FF36
:103ED000E06A642802D2CFA000F0A6FA1322D6A18D
:103EE000D848FFF7E1FA2070D648B34BA14610330B
:103EF000C049D0F80C22FFF7ADFBBE4800F094FAA1
:103F0000D048FFF721FA01228021AD48FCF7F0FEEE
:103F1000B84C0021084604F580634FF48067225CAA
:103F2000202A05D00A2A03D00D2A01D05A54491C50
:103F3000401CB842F3D30024DFF80C8325469A4690
:103F40001AF80500462806D0422817D04C282CD055
:103F500052282AD02CE00AEB050002AABBA1401C83
:103F6000FCF780F951464246029804E04B5D135538
:103F7000401E641C02900028F8DC19E00AEB0500E2
:103F800002AAB2A1401CFCF76DF9422008F8040017
:103F900002984146401E4622029002E00A55401E09
:103FA0000290641C0028F9DC02E008F80400641C9C
:103FB0006D1CBD42C4D3A44800F036FA4FF0010A8C
:103FC0004C46C9F804A0524620217D48FCF790FEDB
:103FD000C1469FED9F8B4FF0000B6F4604AD4FF035
:103FE000FF389DA1D1E90001CDE900019CA04FF46B
:103FF0008071006804904FF09040FCF774FE60619F
:1040000019F80600462804D1616811B961690129CF
:1040100002D04C2831D035E0002220216848FCF73E
:1040200067FE4346012269468E48FDF78FFD4346F1
:10403000012204A98B48FDF789FD43460122791C22
:104040008848FDF783FD4346012204A98548FDF712
:104050007DFDA068FCF740FA53EC182BFCF7C7F97C
:10406000FCF771FA804903908842BADBC4F808B0C3
:10407000C4F80CB0C4F804A02DE0616811B96169FE
:10408000012902D0522828D02CE04346012269465B
:104090007448FDF75BFD4346012204A97148FDF712
:1040A00055FD43460122791C6E48FDF74FFD4346FE
:1040B0000122A91C6B48FDF749FDE068FCF70CFAEA
:1040C00053EC182BFCF793F9FCF73DFA0390B0F191
:1040D0007D5F86DB2FE0761C83E7606810B960693E
:1040E000012803D0606801282AD02BE04346012232
:1040F00069465C48FDF72AFD43460122A91C594840
:10410000FDF724FD43460122791C5648FDF71EFDAC
:104110004346012204A95348FDF718FDA068FCF7A7
:10412000DBF953EC182BFCF762F9FCF70CFA03905F
:10413000B0F17C5FD0DBC4F808B0C4F80CB0CAE7BB
:104140006069C0B14346012269464648FDF7FEFC5E
:1041500043460122A91C4348FDF7F8FC43460122CF
:10416000791C4048FDF7F2FC43460122A91C3D485A
:10417000FDF7ECFC35E7012220211148FCF7B8FDE2
:104180004346012269463748FDF7E0FC43460122D9
:10419000A91C3448FDF7DAFC43460122791C31485A
:1041A000FDF7D4FC43460122A91C2E48FDF7CEFCA6
:1041B000C4F804B015E70000000000200000000073
:1041C000000400482F000000D8010020000000007B
:1041D000000000000000E03F5344204341524420CF
:1041E000546F74616C2053697A653A2009256C75A7
:1041F0000A0D00003406002053442043415244205D
:10420000667265652073706163653A2009256C7577
:104210000A0D00005741524E494E473A206E6F74C6
:1042200020656E6F756768206672656520737061C2
:104230006365210A0A0D000046494C45312E545849
:104240005400000008040020340E00202564000003
:10425000000000000000C03FC1C9C1C9C00000008B
:1042600040200000D80000209A99593F04E000BF88
:1042700011F8013B00F8013B521EF9D27047C9B258
:1042800001E000F8011B521EFBD2704770B50546D5
:10429000D0F82C020C460026A04210D0284600F090
:1042A00036F906000BD195F8010201232246294672
:1042B000FFF722F808B1741E0126C5F82C423046DB
:1042C00070BD2DE9F04717460D460446022903D379
:1042D000D4F81402A84202D80220BDE8F08794F86E
:1042E000001207F0FF084FF0010901291FD0022931
:1042F0004FD00329F0D1D4F8200200EBD51120468D
:10430000FFF7C4FF0028E8D140F2FF1101EA850160
:104310000A194FF07043D17803EA016139431170F3
:104320000B0A53700B0C9370090ED17041E0D4F856
:10433000200205EB550600EB56212046FFF7A6FFAD
:104340000028CAD1C6F30800761C2044E90703D030
:10435000017868F31F1100E03946017084F8049277
:10436000D4F8200200EB56212046FFF78FFF0028EB
:10437000B3D1C6F308012144EA0702D0C7F30712FC
:1043800005E00A78C7F3032302F0F0021A430A702B
:104390000FE0D4F8200200EB15212046FFF776FF4E
:1043A00000289AD1E9B204EB41013A0A81F8008071
:1043B0004A7084F8049290E72DE9F0410F460646D2
:1043C000022917D3D6F81402B84213D9002523E0E6
:1043D00039463046FFF72CFC040021D0012C09D0CF
:1043E000601C09D0002239463046FFF76AFF0500FD
:1043F00016D103E0022513E0012511E0D6F81002E2
:10440000411C08D0401CC6F8100296F8050240F086
:10441000010086F805022746D6F81402B842D7D81C
:104420002846BDE8F081000010B50446FBF712FFF6
:104430002146C2B2BDE810404FF0FF330148FDF7FE
:1044400085BB00005801002081760A0AC2760A0C5A
:104450000275090E4175704770B5044600F057F8B3
:10446000050052D194F80002032846D194F80502C1
:10447000012842D1420200212046FFF700FF5520CB
:1044800084F8FE01AA2084F8FF0152202070607099
:104490006120A0704121E170722284F8E42184F847
:1044A000E52184F8E61184F8E701D4F8100284F8D5
:1044B000E801010A84F8E911010C84F8EA11000E00
:1044C00084F8EB01D4F80C0284F8EC01010A84F8BA
:1044D000ED11010C84F8EE11000E84F8EF01D4F810
:1044E0001C220123521CC4F82C2294F801022146FC
:1044F000FEF71CFF002084F80502002294F8010258
:104500001146FEF7EBFE00B10125284670BD2DE9EE
:10451000F041044690F80402002728B3D4F82C5246
:1045200094F8010201232A462146FEF7FFFE08B156
:10453000012719E0002084F80402D4F82002D4F8FE
:104540001812281A88420FD294F803620AE0D4F8AD
:1045500018020123054494F801022A462146FEF779
:10456000E5FE761E022EF2D23846BDE8F08110B587
:1045700088B1D0F8001271B191F800225AB1B1F8A7
:104580000622B0F80402824205D191F80102FEF73A
:10459000C1FEC00700D0092010BD000000000000CF
:1045A000000000000102030406070809A0860100BC
:1045B000400D0300801A060000350C0040420F0039
:1045C00080841E0000093D0000127A000024F400DF
:1045D00000366E010048E801006CDC0200000000BB
:1045E00001020304809A90B68EB78F80D2D3D4D8BC
:1045F000D7DE8E8F909292E299E3EAEB59999A9DD9
:104600009C9D9E9FB5D6E0E9A5A5A6A7A8A9AAABA3
:10461000AC21AEAFB0B1B2B3B4B5B6B7B8B9BABBEE
:10462000BCBDBEBFC0C1C2C3C4C5C7C7C8C9CACB51
:10463000CCCDCECFD0D1D2D3D4D5D6D7D8D9DADB42
:10464000DCDDDEDFE0E1E2E3E5E5E6E7E7E9EAEB32
:10465000EDEDEEEFF0F1F2F3F4F5F6F7F8F9FAFB21
:10466000FCFDFEFF0004000200018000400020006D
:10467000100008000400020000000080004000203C
:104680000010000800400020001000080004000294
:10469000DDDDDDDDDCBBBBDDDDDDDDDDDDDDDDDD8F
:1046A00098888888888888887777777777888888CF
:1046B0008555555666666666666666666668888867
:1046C0008333333222222222222222222228888D60
:1046D000F04600080000002074000000D82A0008FE
:1046E0006447000874000020E4150000E82A000870
:1046F00000000000000000000000000000000000BA
:1047000000000000000000000000000000000000A9
:104710000000000000000000000000000000000099
:10472000000000000000000001000000692A0008ED
:10473000852A0008812A0008892A00087D2A0008A5
:104740000000000000000001000000001000000058
:10475000010000000000000000093D000000000012
:044760000000000055
:040000050800018D61
:00000001FF
