:020000040800F2
:10000000F8050020A5010008E7260008F51F0008F4
:10001000E52600086D070008B9310008000000005F
:10002000000000000000000000000000952800080B
:100030006F07000800000000E92600089728000864
:10004000BF010008BF010008BF010008BF01000890
:10005000BF010008BF010008BF010008BF01000880
:10006000BF010008BF010008BF010008BF01000870
:10007000BF010008BF010008BF010008BF01000860
:10008000BF010008BF010008BF010008BF01000850
:10009000BF010008BF010008BF010008BF01000840
:1000A000BF010008BF010008BF0100084529000882
:1000B000BF0100080000000000000000052000084B
:1000C000F91F00080000000000000000BF01000848
:1000D00000000000BF010008BF0100080000000090
:1000E000BF010008BF010008000000000000000080
:1000F0000000000000000000000000000000000000
:10010000000000000000000000000000BF01000827
:100110000000000000000000BF010008BF0100084F
:10012000BF010008BF010008BF010008BF010008AF
:10013000BF010008000000000000000000000000F7
:10014000BF010008BF010008BF010008BF0100088F
:10015000BF010008BF010008BF010008BF0100087F
:10016000BF010008BF010008BF0100080000000037
:10017000BF010008BF0100080000000000000000EF
:10018000BF010008BF010008BF010008DFF810D060
:1001900000F0C8FA00480047F13A0008AFF30080C9
:1001A000F80500200648804706480047FEE7FEE7BE
:1001B000FEE7FEE7FEE7FEE7FEE7FEE7FEE7FEE717
:1001C000012900088D0100082DE9F05F0546002097
:1001D00092469B4688460646814640241BE02846B8
:1001E00041464746224600F051F953465A46C01A46
:1001F000914110D311461846224600F038F92D1AC5
:1002000067EB01084F4622460120002100F02FF93C
:1002100017EB00094E41201EA4F10104DFDC484623
:1002200031462A46434600F000B830BCBDE8C09FC6
:10023000D2B201E000F8012B491EFBD27047002228
:10024000F6E710B513460A4604461946FFF7F0FFD5
:10025000204610BD2DE9FE4F81EA030404F000445E
:1002600021F0004100944FF0000B23F0004350EACE
:1002700001045ED052EA03045BD0C3F30A54C1F315
:100280000A552C44A4F2F3340194A0FB0254C1F3A8
:10029000130141F48011C3F3130343F4801301FBF2
:1002A000024400FB034E840A970A44EA815447EA59
:1002B0008357A4FB076802958D0A05FB07854FEA63
:1002C000932C04FB0C542705029D4FEA065847EA7D
:1002D0001637B5EB08056EEB070C870E920E47EA52
:1002E000811742EA8312A7FB0201B6EB0B0164EB14
:1002F00000042B0D43EA0C335E1844EB1C50DA4625
:100300005146E7FB0201C5F313044FEA0B3343EAFE
:1003100014534FEA0432019C43EA0603A4F10C048F
:100320000294009CCDE900B400F0CFF803B000F0D7
:1003300003B800200146F9E730BCBDE8C08F2DE9C5
:10034000F04D81EA030404F0004B21F0004514460F
:100350004FF0000A23F0004150EA050220D054EA91
:1003600001021DD0C5F30A570246C5F31303C1F3BA
:100370001300C1F30A5640F4801543F48013A7EB31
:100380000608101BD64608F2FD3873EB050002D3B1
:1003900008F1010801E092185B41B8F1000F03DA9F
:1003A00000200146BDE8F08D00204FF48011064684
:1003B00084460EE0171B73EB050705D3121B63EB96
:1003C000050306434CEA010C49084FEA3000921835
:1003D0005B4150EA0107EDD152EA030012D082EAF4
:1003E000040083EA0501084305D0101BAB4106D287
:1003F0000122002306E000224FF0004302E06FF0EC
:10040000010253101AEB06004CEB085110EB0A00E6
:1004100041EB0B01BDE8F04D00F048B800F00042A0
:1004200030F000400AD0C10D01F56071C0F3160034
:1004300042EA0151C20840071143704700200146BB
:10044000704730B50B46014600202022012409E008
:1004500021FA02F59D4205D303FA02F5491B04FA7D
:1004600002F52844151EA2F10102F1DC30BD202A5C
:1004700004DB203A00FA02F1002070479140C2F1FB
:10048000200320FA03F3194390407047202A04DB2D
:10049000203A21FA02F00021704721FA02F3D040FD
:1004A000C2F12002914008431946704710B5141E4E
:1004B00073F1000408DA401C41F1000192185B411D
:1004C0001A4301D120F0010010BD2DE9F04D9246F4
:1004D0009B4611B1B1FA81F202E0B0FA80F220320B
:1004E0009046FFF7C4FF04460F4640EA0A0041EA7F
:1004F0000B0153465A46084313D0114653EA0100F4
:1005000019D0C8F140025046FFF7C0FF05460E461D
:10051000504659464246FFF7AAFF084305D001203E
:1005200004E020463946BDE8F08D0020054346EA48
:10053000E0762C4337430A986305E40AA0EB0800F1
:100540000022FD0A44EA47540A3002D50020014641
:10055000E9E7010510196941DDE90845001969411C
:10056000BDE8F04DA2E72DE9FE4F804681EA030089
:10057000C00F0C46009021F0004123F00045B8EB7D
:100580000200A94105D24046214690461C460B4632
:10059000024623F00040104347D0270DC7F30A005E
:1005A000C3F30A510290401A019040286BDAC3F35A
:1005B000130040F4801B0098924620B10023D2EB38
:1005C000030A63EB0B0B01985946C0F140025046F9
:1005D000FFF74DFF06460D4650465946019A00F07A
:1005E000B3F810EB08006141002487EA115284EA55
:1005F000E7731A4340D0009A62B3019A012A4FEA86
:10060000075215DC001B61EB02014FF0004202EAC9
:100610000752CDE90042001C41F5801132462B46BD
:10062000FFF753FF03B000F045B840462146F9E715
:10063000001B61EB0201001C41F5801300185B41B7
:100640002018A2F5001747EB030140EAD570B61950
:100650006D4111E06D084FEA360645EAC0754FEA74
:100660000752001B61EB0201001C41F58011490893
:100670004FEA30000019514132462B4603B000F0DA
:100680001CB8FFF713BF0098012240000023D0EBF5
:10069000020263EBE073009821464FEAE074B8EB86
:1006A000000061EB0401E9E783F000435BE781F0C0
:1006B000004158E730BCBDE8C08F30BCBDE8C04F3A
:1006C000FFF7DFBFC1F30A52C1F3130140F2FF335A
:1006D00041F480119A4202DA00200146704740F24C
:1006E00033439A42A2F2334202DC5242FFF7CEBEBB
:1006F000FFF7BDBE30B5041E71F1000404DB4FF0FE
:100700000044404264EB0101141E73F1000405DB58
:100710001C464FF00043524263EB0403994208BF6A
:10072000904230BD064C074D06E0E06840F0010302
:1007300094E8070098471034AC42F6D3FFF72AFD3F
:10074000783C0008983C0008202A06DBCB17203AAA
:1007500041FA02F043EAE07306E041FA02F3D040C6
:10076000C2F120029140084319467047FEE77047E6
:1007700010B590F825100024022903D00421C1638C
:1007800001241AE001680A6822F00E020A6001687A
:100790000A6822F001020A6090F84410036C01F02C
:1007A0001C02012101FA02F25A6080F82510002192
:1007B00080F82410816B01B18847204610BD0000ED
:1007C00070B5044600F0E2F80546601C02D004480B
:1007D0004068044400F0DAF8401BA042FAD370BD30
:1007E0001C0000202DE9F84FDFF870B1002301272D
:1007F0004FF0030A4FF00F090BF1040EA7E000BF02
:1008000007FA03F6324070D04C68022C01D0122C4B
:1008100010D1DC0800EB8408D8F820405D074FEACF
:10082000D56C09FA0CF5AC430D6905FA0CF52543B6
:10083000C8F82050D0F800805D0091F804C00AFA92
:1008400005F40CF0030C28EA04080CFA05FC4CEA49
:10085000080CC0F800C0D1F804C0BCF1010F08D0EA
:10086000BCF1020F05D0BCF1110F02D0BCF1120F88
:1008700016D1D0F808C0D1F80C802CEA040C08FA84
:1008800005F848EA0C08C0F80880D0F804C02CEA43
:10089000060C0E79C6F300169E4046EA0C0646602A
:1008A000C668A6438C68AC403443C4604C68E4001E
:1008B0004CD52B4C256E45F001052566246E23F0A2
:1008C000030504F001040094264C2E19B4689D071A
:1008D0004FEA157C09FA0CF5AC43B0F1904F05D006
:1008E000214DA84204D1012508E02FE0002505E0B4
:1008F0001E4DA84201D1022500E0072505FA0CF59E
:100900002543B560DBF800405D464E689443F6032E
:1009100000D514432C60DEF8004075464E689443C1
:10092000B60300D514432C600C4D08352C684E6876
:100930009443F60200D514432C60084D0C352C6806
:100940004E689443B60200D514432C605B1C0A68C1
:1009500032FA03F47FF454AF00F00AB80004014007
:100960000010024000000140000400480008004858
:1009700018BCBDE8E08F0069084000D00120704736
:100980000AB1816170478162704700000148806848
:10099000704700001C00002090F84120202A24D13C
:1009A00090F84020012A20D0012280F84020242203
:1009B00080F841200268136823F001031360026885
:1009C000136823F480531360026813680B431360A9
:1009D00001680A6842F001020A60202180F8411093
:1009E000002180F84010084670470220704790F8B8
:1009F0004120202A22D190F84020012A1ED0012235
:100A000080F84020242280F841200268136823F0F7
:100A1000010313600268136823F4706343EA012141
:100A2000116001680A6842F001020A60202180F822
:100A30004110002180F8401008467047022070479E
:100A40007047704730B403689A691968D243D40577
:100A500009D4CC43240606D4446C44F00104446415
:100A60004FF48074DC6153050AD4CB431B0607D4D2
:100A7000436C43F00803436404684FF48063E3610C
:100A800092050AD4C943090607D4416C41F002011A
:100A9000416402684FF40071D161416C11F00B0F99
:100AA00002D030BC01F048BB30BC7047026891698D
:100AB0001268436B002B00D0184770477047000046
:100AC00070B5040004D094F84100002510B106E090
:100AD000012070BD84F84050204600F04FF82420DB
:100AE00084F841002068016821F00101016060681C
:100AF000216820F0706008612068816821F400415D
:100B00008160E0680128A06807D040F404402168B3
:100B10008860E068022803D006E040F40040F6E771
:100B200021684FF40060486020684168114A114311
:100B300041602068C16821F40041C160D4E904012A
:100B40000843A16940EA01202168C860D4E907018F
:100B50000843216808602068016841F001010160D4
:100B60006564202084F84100256384F84250002009
:100B700070BD0000008000027047000010B586B014
:100B8000044614216846FFF75AFB1A492068884238
:100B90002ED1194CE06C40F00200E064E06C694634
:100BA00000F002000590C02000901220019001206A
:100BB000029003200390042004901048FFF712FED7
:100BC000A06D40F40010A065A06D002200F400109C
:100BD000059011461F2000F073F81F2000F062F806
:100BE00000221146202000F06BF8202000F05AF877
:100BF00006B010BD00540040001002400004004840
:100C000070477047024881684268114481607047AC
:100C10001C00002010B50024032000F071F8002013
:100C200000F008F808B1012401E000F025F82046A2
:100C300010BD000070B50E4E05460024706898B1D6
:100C40004FF47A71B1FBF0F00A490968B1FBF0F09A
:100C500000F082FD40B9102D06D200222946501E18
:100C600000F02EF8356000E00124204670BD000041
:100C70001C00002028000020094808B5016E41F042
:100C800001010166016E01F001010091816D41F0E9
:100C900080518165806D00F08050009008BD00009B
:100CA00000100240002809DB00F01F0201219140E2
:100CB0004009800000F1E020C0F8001170470000FA
:100CC000F0B40E4B1B680C46C3F30223C3F10705B7
:100CD000042D00D90425191D072901D2002300E0A5
:100CE000DB1E012606FA05F1491E214099409E406F
:100CF000761E16403143F0BC02F074BA0CED00E0F1
:100D0000064900F0070208684FF6FF03184040EA62
:100D10000220034A10430860704700000CED00E019
:100D20000000FA051649B0F5007F0868C0F34120BD
:100D300009D0022805D0086820F4C06040F4806023
:100D40000860002070470128FBD0086820F4C060CC
:100D500040F4007008600B483222006850430A4A91
:100D6000B0FBF2F0401C00E0401E4A69520501D57C
:100D70000028F9D148694005E3D5032070470000F9
:100D8000007000402800002040420F000248006828
:100D900000F4C06070470000007000402DE9F84F7B
:100DA0000446002700889C4D3E46000515D5E06BA3
:100DB00060B1B0F5000F04D0B0F5400F2BD0012783
:100DC0000AE0E86840F48030E86024E00021201D5B
:100DD00001F08CFC07001ED03E462068800338D509
:100DE000A86D4FF00008C00009D4A86D40F08050F5
:100DF000A865A86D4FF0010800F080500090DFF862
:100E00001CA2DAF8001041F48071CAF80010FFF754
:100E1000BDFD814610E0D5F88800E16B20F440006C
:100E20000843C5F88800D8E7FFF7B0FDA0EB09003C
:100E3000022801D9032704E0DAF80000C005F3D541
:100E4000EFB33E46B8F1000F03D0A86D20F08050FC
:100E5000A8652078C00707D0D5F88800216A20F05F
:100E600003000843C5F888002078800707D5D5F827
:100E70008800616A20F00C000843C5F888002078DB
:100E8000800607D5D5F88800A16A20F440600843A1
:100E9000C5F888002088800507D5D5F88800616BE3
:100EA00020F440200843C5F888002088400509D573
:100EB000D5F88800A16B20F44010084300E02EE034
:100EC000C5F888002078400607D5D5F88800E16A83
:100ED00020F440500843C5F888002088C00507D595
:100EE000D5F88800216B20F440300843C5F888000D
:100EF00020884FF0006780044FF080684ED5D5F809
:100F00008800216C20F040600843C5F88800206C00
:100F1000B8423BD1E86840F48010E8603EE0D5F884
:100F2000900010F4407014D0216D814211D0D5F89A
:100F30009000D5F8901020F4407041F48031C5F84D
:100F40009010D5F8901021F48031C5F89010C5F8B4
:100F50009000C00711D0FFF719FD074641F288390C
:100F600007E000BFFFF712FDC11B494501D9032669
:100F700068E7D5F890008007F4D5D5F89000216D8A
:100F800020F440700843C5F890005BE7404505D168
:100F90000121201D01F0AAFB00B106462068400394
:100FA00017D5D5F88800616C20F040600843C5F87B
:100FB0008800606CB84204D1E86840F48010E860B2
:100FC00007E0404505D10121201D01F08FFB00B154
:100FD00006462088400411D5D5F88800A16C20F081
:100FE00040500843C5F88800A06CB0F1805F05D17F
:100FF0000221201D01F07AFB00B106462088000482
:1010000006D555F8880FE16C20F080400843286031
:10101000304600F005B800000010024000700040AB
:1010200018BCBDE8E08F00002DE9F0470F46050031
:1010300058D0404E306800F00700B84209D23068FE
:1010400020F0070038433060306800F00700B842F5
:1010500048D12878384CC0072CD06868032811D0B4
:10106000022812D0216898B1490500293ADAA1680E
:1010700021F003010143A160FFF788FC804641F2A3
:10108000883910E021688901EFE721688903ECE7DE
:101090008907EAE7FFF77AFCA0EB0801494502D986
:1010A0000320BDE8F087A068696800F00C00B0EB91
:1010B000810FEFD12878800705D5A068A96820F0B6
:1010C000F0000843A060306800F00700B8420BD978
:1010D000306820F0070038433060306800F00700C7
:1010E000B84201D00120DCE72878400705D5A06888
:1010F000E96820F4E0600843A0602878000706D57E
:10110000A068296920F4605040EAC100A06000F0A6
:101110003FF8A168094AC1F30311515C01F01F01B6
:10112000C8400749086007480068BDE8F047FFF776
:1011300081BD00000020024000100240303C000849
:10114000280000201C000020054806490068896826
:10115000054AC1F30221515C01F01F01C8407047EC
:101160002800002000100240703C00080548064995
:1011700000688968054AC1F3C221515C01F01F0172
:10118000C84070472800002000100240703C000852
:1011900070B52549002318468A68CC6812F00C0205
:1011A00004F00306214C4FEA640509D00C2A05D04F
:1011B000042A32D0082A00D1284670BD012E10D151
:1011C0000B681B0704D4D1F89430C3F3032302E067
:1011D0000B68C3F30313164E56F82330DAB10C2A0A
:1011E000EBD1C86800F00300022818D0032818D0FB
:1011F0001846CA68CB68C2F30212C3F306234343FE
:10120000521CB3FBF2F2C868C0F34160401C4000BE
:10121000B2FBF0F070BD184670BD204670BD204690
:10122000E7E72846E5E70000001002400024F4004C
:10123000403C00082DE9F84304006ED0FD4DA8683D
:1012400000F00C06E86800F003072078C00663D5BC
:1012500076B10C2E01D1012F0AD0A0690028286890
:1012600078D040F001002860FFF790FB80465BE0FB
:101270002868800702D5A0690028DED0216A286886
:10128000000703D5286800F0F00004E0D5F89400CA
:10129000F02202EA1010814216D9084601F0BCFA89
:1012A00000283AD1286840F0080028602868216AA0
:1012B00020F0F000084328606868E16920F47F406E
:1012C00040EA0120686015E0286840F008002860C6
:1012D0002868216A20F0F000084328606868E16906
:1012E00020F47F4040EA01206860206A01F094FA0F
:1012F0000028D6D1FFF74CFFA968CF4AC1F30311EC
:10130000515C01F01F01C840CC490860CC4800681E
:10131000FFF790FC00287DD12DE0C9E0FFF736FBF8
:10132000A0EB0800022876D828688007F6D5286840
:1013300040F0080028602868216A20F0F000084387
:1013400028606868E16920F47F4040EA0120686015
:1013500011E0FFE720F001002860FFF717FB80464F
:1013600006E000BFFFF712FBA0EB08000228DAD866
:1013700028688007F6D42078C00740D0082E18D0FF
:101380000C2E01D1032F14D06068B0F5803F17D028
:10139000B0F5A02F286817D020F480302860286886
:1013A00020F4802028606068E0B1FFF7EFFA804603
:1013B00014E02868800322D56068002878D01EE0F9
:1013C000286840F48030EDE740F480202860F7E79B
:1013D000FFF7DCFAA0EB08006428A4D82868800393
:1013E000F6D50CE0FFF7D2FA804605E0FFF7CEFA1B
:1013F000A0EB0800642896D828688003F6D42078EB
:1014000080073BD5042E11D00C2E01D1022F0DD018
:10141000E06801E064E1B8E0002828681ED040F4EC
:1014200080702860FFF7B2FA07460CE02868400594
:101430000CD5E0680028C1D008E000BFFFF7A6FA8D
:10144000C01B022893D828684005F7D56868217C1E
:1014500020F0F85040EA016068600FE020F48070EE
:101460002860FFF793FA074605E000BFFFF78EFA02
:10147000C01B0228B1D828684005F7D4207800079F
:1014800029D560690028D5F8940012D040F00100F9
:10149000C5F89400FFF77AFA074604E0FFF776FAFA
:1014A000C01B022871D8D5F894008007F6D512E049
:1014B0004CE120F00100C5F89400FFF767FA0746F9
:1014C00005E000BFFFF762FAC01B02285DD8D5F81F
:1014D00094008007F6D42078400766D5A86D0027D1
:1014E000C00008D4A86D40F08050A865A86D012701
:1014F00000F08050009053480168C90512D401687B
:10150000814641F480710160FFF740FA804605E0B2
:10151000FFF73CFAA0EB0800022836D8D9F8000003
:10152000C005F5D5A068012816D00528D5F890008B
:1015300017D020F00100C5F89000D5F8900020F0F9
:10154000040000BFC5F89000A06841F28839C0B11E
:10155000FFF71CFA80460FE0D5F8900040F001003C
:10156000F0E740F00400C5F89000F5E7FFF70EFA49
:10157000A0EB0801494508D8D5F890008007F5D5BB
:101580000EE0FFF703FA804606E07CE0FFF7FEF985
:10159000A0EB0801494576D8D5F890008007F5D42E
:1015A0001FB1A86D20F08050A8652078800628D54E
:1015B000606A0028D5F8980012D040F00100C5F804
:1015C0009800FFF7E3F9074605E000BFFFF7DEF9F3
:1015D000C01B022857D8D5F898008007F6D510E030
:1015E00020F00100C5F89800FFF7D0F9074604E0A5
:1015F000FFF7CCF9C01B022871D8D5F898008007F6
:10160000F6D4A06AF0B30C2E71D00228286820F01E
:10161000807028601AD02868000103D4E86820F0A0
:101620000300E860E86808490840E860FFF7AEF9A1
:10163000044657E000100240303C0008280000201B
:101640001C00002000700040FFFFEEFEFFF79EF937
:10165000064604E0FFF79AF9801B02283FD8286865
:101660008001F7D4F4E90B016FF00F0202EB0111D6
:101670000843218A4908520402EB4151A26841EA19
:10168000022101E064E02AE00843217D4FF07E4220
:10169000490802EB41610843217B40EAC160E968E7
:1016A0002C4A11400843E860286840F080702860A8
:1016B000E86840F08070E860FFF768F9044604E0ED
:1016C000FFF764F9001B022809D828688001F7D5C4
:1016D0003EE000BFFFF75AF9001B022802D90320A1
:1016E000BDE8F88328688001F4D431E0FFE70128E1
:1016F000F6D0E868E26A00F00301914226D1216B3E
:1017000000F070020901103991421FD1626B00F4A0
:10171000FE41B1EB022F19D194F8382000F0784146
:10172000B1EBC26F12D1A18F00F4C0024908490584
:10173000A1F50011914209D194F8401000F0C06069
:1017400049084906A1F10071814201D00120C7E793
:101750000020C5E78C809D0110B5401EB0F1807F50
:1017600001D3012010BD4FF0E02460610F2160170C
:1017700001F038FD0020A06107202061002010BD8D
:10178000704770477047000070B590F83C20012A00
:1017900021D0012480F83C40022280F83D200368DB
:1017A0005A689D680D4EB34203D122F470064A6810
:1017B000324322F070060A688968324325F08005BA
:1017C00029435A600268916080F83D40002180F80A
:1017D0003C10084670BD022070BD0000002C014086
:1017E00010B5040003D094F83D0010B107E00120CB
:1017F00010BD002084F83C00204600F00DF80220C7
:1018000084F83D00211D206801F00EF9012084F8C4
:101810003D00002010BD000010B586B00446142124
:101820006846FEF70CFD17492068884227D1164804
:10183000016E41F400610166016E01F400610591E1
:10184000C16C41F00101C164C06C694600F0010047
:1018500005904FF4807000900220019000200290CB
:101860000390012004904FF09040FEF7BBFF002250
:1018700011461B20FFF724FA1B20FFF713FA06B0CE
:1018800010BD0000002C01400010024070B504465D
:1018900090F83C00012817D0012584F83C50022024
:1018A00084F83D00226890682E4B184020F47F4059
:1018B00090600868502830D00DDC20284DD005DC21
:1018C00098B310283BD148E0022070BD302844D0A6
:1018D000402834D139E0602828D0702806D0B0F5EF
:1018E000805F2CD0B0F5005F29D10AE0CB68D1E948
:1018F0000121206801F0CEF82068816841F077016D
:1019000009E0CB68D1E90121206801F0C3F8206823
:10191000816841F48041816011E0CA6849682068AB
:1019200001F008FA5021206807E016E0CA6849680B
:10193000206801F039FA6021206801F0B5F884F8D8
:101940003D50002084F83C0070BDCA68496820689A
:1019500001F0F0F940212068EFE7226801461046C7
:10196000EBE7000088FFFEFF704700002DE9F04123
:10197000044690F83C000D4601283DD0012684F82D
:101980003C60022084F83D00AAB3042A46D02068B7
:10199000082A55D0D5E90027E968036A23F4805363
:1019A0000362D0F81CC0036A2CF4407C4CEA072781
:1019B0004FF6FF7C27F470470CEA013139434FF4AE
:1019C000204723F4204307EA02321A43C16102622E
:1019D0002068C16921F44061C1612068C169AA68B9
:1019E00041EA0221C0F81C1084F83D60002084F810
:1019F0003C00BDE8F08101E00220FAE7D5E90012E1
:101A0000EB68206801F0A8F92068816921F00C01D9
:101A1000816120688169AA6811430FE0D5E900124D
:101A2000EB68206801F0D2F92068816921F44061F7
:101A3000816120688169AA6841EA02218161D3E756
:101A4000D5E9002C2F7B016A21F480710162C16904
:101A5000036A21F0030141EA0C0121F0F00C39077F
:101A60004FF420674CEA116123F4206307EA022255
:101A70001A43C16102622068C16921F00C01C16191
:101A80002068C169AA681143ACE710B5040003D00F
:101A900094F83D0010B107E0012010BD002084F84B
:101AA0003C00204600F00CF8022084F83D00211D87
:101AB000206800F0B9FF012084F83D00002010BD2F
:101AC000704770B50446006801694FF00005C943CE
:101AD000890715D4C168C943890711D4E91E01617A
:101AE00001202077206880698007204602D0FFF718
:101AF0003BFF04E000F0CEF8204600F08DF925779A
:101B000020680169C943490717D4C168C943490717
:101B100013D46FF0040101610220207720688069EE
:101B200010F4407F204602D0FFF71EFF04E000F0D3
:101B3000B1F8204600F070F9257720680169C943A3
:101B4000090716D4C168C943090712D46FF0080108
:101B50000161042020772068C0698007204602D0F8
:101B6000FFF702FF04E000F095F8204600F054F97A
:101B7000257720680169C943C90617D4C168C943DC
:101B8000C90613D46FF01001016108202077206886
:101B9000C06910F4407F204602D0FFF7E5FE04E064
:101BA00000F078F8204600F037F9257720680169C1
:101BB000C943C90708D1C168C943C90704D1891EEF
:101BC0000161204600F029F920680169C94309062E
:101BD00009D4C168C943090605D46FF080010161C9
:101BE0002046FFF7CEFD20680169C943C90509D425
:101BF000C168C943090605D46FF4807101612046AC
:101C0000FFF7BEFD20680169C943490609D4C168D0
:101C1000C943490605D46FF040010161204600F038
:101C200012F920680169C94389060BD4C168C94308
:101C3000890607D46FF0200101612046BDE870409D
:101C4000FFF7A0BD70BD000010B586B0044614219A
:101C50006846FEF7F4FA2068B0F1804F16D10C48C0
:101C6000C16C41F00101C164C06C694600F0010023
:101C70000590202000900220019000200290039007
:101C8000012004904FF09040FEF7ACFD06B010BD6F
:101C900000100240704770B5044690F83C000D46B5
:101CA00001280ED0012684F83C60022084F83D0013
:101CB0000C2A45D007DC5AB1042A1BD0082A78D157
:101CC0002CE0022070BD102A4ED0142A71D15DE0A4
:101CD000206800F0F1FE2068816941F0080181610F
:101CE0002068816921F004018161206881692A6985
:101CF000114311E0206800F01BFF2068816941F466
:101D0000006181612068816921F4806181612068BE
:101D100081692A6941EA022181614AE0206800F074
:101D200043FF2068C16941F00801C1612068C169B1
:101D300021F00401C1612068C1692A69114311E0E1
:101D4000206800F06BFF2068C16941F40061C16147
:101D50002068C16921F48061C1612068C1692A6974
:101D600041EA0221C16124E0206800F087FF206879
:101D7000416D41F0080141652068416D21F0040189
:101D800041652068416D2A69114311E0206800F027
:101D9000A3FF2068416D41F4006141652068416DF9
:101DA00021F4806141652068416D2A6941EA022180
:101DB000416584F83D60002084F83C0070BD10B59A
:101DC000040003D094F83D0010B107E0012010BDDD
:101DD000002084F83C00204600F00CF8022084F833
:101DE0003D00211D206800F01FFE012084F83D0009
:101DF000002010BD08B50068B0F1804F08D105483B
:101E0000816D41F001018165806D00F0010000905D
:101E100008BD0000001002407047704702460020D5
:101E200041B1042909D008290AD00C2901D1106830
:101E3000006C70471068406B70471068806B70478B
:101E40001068C06B7047704710B5040002D0606F17
:101E500010B107E0012010BD002084F8700020467A
:101E600000F026F8242060672068016821F0010155
:101E70000160204601F056F80128ECD0606A10B1EC
:101E8000204600F0BEFF2068416821F49041416087
:101E90002068816821F02A0181602068016841F092
:101EA000010101602046BDE8104001F00EB80000BD
:101EB000F0B587B0044614216846FEF7C0F91D4FFF
:101EC000266800221C490223032407254FF0904076
:101ED000BE4211D10E6E46F480460E660E6E06F4BA
:101EE00080460596CE6C46F00106CE64C96C01F0C2
:101EF00001010591610213E0104FBE4218D18E6DB1
:101F000046F400368E658E6D06F400360596CE6C6E
:101F100046F00106CE64C96C01F0010105910C2167
:101F2000CDE9001302AE694686E83400FEF75AFC9C
:101F300007B0F0BD003801400010024000440040EE
:101F40002DE9F8430446406F1F4616460D462028EB
:101F50004ED1CDB1C6B194F87000012848D001200F
:101F600084F870004FF00008C4F87C80212060677E
:101F7000FEF70CFDA4F850608146A4F85260A068FA
:101F8000B0F5805F03D004E00120BDE8F88320694C
:101F900010B12E46002510E000260EE080212046DC
:101FA00001F0DAF8B8B9C6B116F8010B2168088556
:101FB000B4F85200401EA4F85200B4F852004B4648
:101FC0004FF0000200970028E8D14FF04001204672
:101FD00001F0C2F830B10320D7E735F8020BC0F3A7
:101FE0000800E3E72020606784F870800020CCE7D9
:101FF0000220CAE7FEE700000148FEF723BD00000B
:102000002C0000200148FEF751BD00002C000020EC
:1020100010B5806A0021826B9163C26B916390F866
:102020004110602902D0FEF749FD10BD202180F843
:102030004110FEF705FD10BD10B50022CC074FF092
:10204000280306D090F84140422233EA040400D02D
:10205000F2228C0707D590F8414042F04402A34396
:1020600001D042F0B0024B0701D542F0B802112373
:102070008B4301D142F0900212238B4301D142F0F5
:102080006002006801689143016010BD01688A69BF
:10209000D243920701D400228A6200688169C94351
:1020A000C90703D0816941F00101816170472DE9C1
:1020B000F041044690F841002821814320684FF008
:1020C00000054FF0080304D0C36184F84050BDE818
:1020D000F0818169C1F300478169FE2202EA11465D
:1020E0008168C1F30902C168D4F80CC001F0FE0197
:1020F000BCF1020F17D14FF0060C06F006060CEAF1
:10210000D21C66450ED1A16C491CA164A16C0229A8
:10211000DDD1A564C36184F8405039462046FEF7FE
:1021200090FCD4E70E4604212046FFF785FF84F893
:1021300040503246F1E7000070B5044690F8410087
:10214000002584F84250314AE2626585626C0A4398
:1021500062642026282825D0292823D02A2821D0A7
:1021600007212046FFF768FF94F84100602801D05E
:1021700084F8416025636563206801684A04244946
:1021800002681AD522F480420260A06B002833D086
:10219000816384F84050A06BFEF7EAFA00282BD048
:1021A000A06B1CE003212046FFF746FF282084F89F
:1021B0004100256317486063DEE7120413D5026807
:1021C00022F400420260E06B002815D0816384F89D
:1021D0004050E06BFEF7CCFA00280DD0E06B816B2D
:1021E000BDE87040084794F84100602805D084F8A5
:1021F00040502046FEF762FC70BD84F8416084F8D0
:1022000040502046FEF71CFC70BD00000000FFFFA0
:1022100011200008BD23000870B504461548E0628F
:1022200000252563202084F8410084F84250C843EB
:102230006563400711D42068406A616A0870606A6B
:10224000401C6062208D40B1401E2085608D401E84
:102250006085606C40F00400606407212046FFF751
:10226000EBFE21681020C86184F840502046FEF73C
:1022700083FC70BD0000FFFF2DE9F04104460068BB
:10228000056820270E46C76107212046FFF7D4FEC8
:102290002068416841F40041416020684168304A4B
:1022A000114041602046FFF7F1FEE843410401D4AC
:1022B000A06B02E0000404D4E06B10B10068406839
:1022C0006085F04340070FD4206826F00406406A7A
:1022D000616A0870606A401C6062208D20B1401EF7
:1022E0002085608D401E6085608D18B1606C40F067
:1022F000040060640025256384F842506563606CC7
:1023000068B1616C2046FFF717FF94F84100282858
:1023100014D131462046BDE8F041FFF77DBFE06AA9
:10232000104EB0420CD0204600F01EF8E66284F851
:10233000417084F840502046FEF71EFCBDE8F08155
:1023400094F8410084F84170222884F840502046D7
:1023500002D0FEF756FCF1E7FEF752FCEEE7000074
:1023600000E800FE0000FFFF70B50025044680F87D
:10237000425090F841102820292911D094F841109A
:102380002A290CD184F84100222020630221204612
:10239000FFF752FE84F840502046FEF731FC70BD36
:1023A00084F841002120206301212046FFF744FEEC
:1023B00084F840502046FEF724FC70BD2DE9F04122
:1023C0000446C06A0D4694F8401001291ED0012130
:1023D00084F84010E943424B5FEAC16C4FF08077CC
:1023E0006FEA020631D4F2062FD4628D102182B139
:1023F0002268D161616C41F00401616408B1B842A6
:1024000060D1616C2046FFF797FE5BE00220BDE8DB
:10241000F08194F84120282A02D1B0F1007F04D045
:1024200094F84120292A05D00CE029462046FFF7E0
:10243000F3FE47E0984205D02068C1612046FFF7CF
:1024400025FE3CE02068C1613CE04A0717D47207D2
:1024500015D4618D71B1216825F00405496A626A5D
:102460001170616A491C6162218D491E2185618D4F
:10247000491E6185618D29BB984220D122E00A075F
:1024800006D4320704D429462046FFF710FE19E08F
:10249000890717D4B10715D4618D69B1606A2168C5
:1024A00000788862606A401C6062608D401E6085B2
:1024B000208D401E208505E0B84200D010B920468E
:1024C000FFF752FFE843800605D4B00603D429463F
:1024D0002046FFF7D1FE002084F8400097E7000077
:1024E0000000FFFFF0B587B014216846FDF7A7FE96
:1024F0001D48C16C41F00101C164C16C01F00101D2
:102500000591C16C41F00201C164C06C122100F060
:1025100002008E06059000223046FEF731FA134F76
:10252000002220213846FEF72BFA122000900125C8
:102530000024CDE90154694630460394FEF752F970
:10254000E802CDE90004694630460294FEF74AF9F4
:1025500020200090CDE90154694638460394FEF7E7
:1025600041F907B0F0BD000000100240000400482F
:102570000E4810B50C4901600D494160002101224F
:10258000C0E90212016141618161C1610162FEF72E
:1025900097FA00210548FEF7FFF9BDE81040002139
:1025A0000248FEF724BA0000005400402C0000202E
:1025B0000E09002010B58CB000240A941B48079423
:1025C0000894099405940694049400940194029448
:1025D0001549039401600721C0E901144FF6FF710A
:1025E000C0E9031444618461FFF7FAF84FF48050A6
:1025F000079007A90D48FFF749F90C48FFF745FA7E
:102600000494059404A909480694FFF7BDF8012035
:10261000CDE9004002940022694604480394FFF784
:10262000A5F90CB010BD0000002C0140780000207E
:1026300010B58AB00024079408941C2168460994B8
:10264000FDF7FDFD10484FF0804101604F21C0E9CA
:1026500001146321C0E903148461FFF7B0FB079400
:1026600007A909480994FFF78FF86020CDE9000415
:1026700002940022694604480494FFF70CFB0248C8
:10268000FFF7E2FA0AB010BDB80000200948084977
:1026900001604FF496414160002181600C22C160CD
:1026A000C0E904128161C16101624162FFF7CCBBE4
:1026B00000380140F80000200948084901604FF443
:1026C00016514160002181600C22C160C0E90412F2
:1026D0008161C16101624162FFF7B6BB0044004005
:1026E00078010020FEE77047704700002DE9F041B7
:1026F000444C05468846E0680026810728680DD0CE
:10270000E16801F00301814216D1A8B1E06869686F
:10271000C0F30210401C88420ED120E0012804D0F2
:10272000022805D0032807D108E02168890701E0C5
:1027300021684905002907DB01265FE0216889033C
:1027400002D421684903F5E7E1686A686FF00F0376
:1027500021F0730103EB021211430143E160206891
:1027600020F080602060FEF711F9074605E000BF09
:10277000FEF70CF9C01B022837D820680001F7D4F7
:10278000B8F1000F18D0B8F1010F1DD0287D4FF01F
:102790007E41400801EB4060A96840EA01202169C0
:1027A000194A114008432061206840F08060206091
:1027B000FEF7ECF807461AE0A868297B000240EA19
:1027C000C1602169114AECE7288A1149400801EBF0
:1027D0004050A96840EA012021690E4AE1E700BFA4
:1027E000FEF7D4F8C01B022801D9032606E02068B2
:1027F0000001F5D52069A969084320613046BDE88C
:10280000F081000000100240FF80FFF9FF80FF0709
:102810000000E0FFFF809FFFF8B51C4D0646002436
:10282000A86DC00002D5FEF7B1FA0DE0A86D40F02A
:102830008050A865A86D00F080500090FEF7A6FAC1
:10284000A96D21F08051A965B0F5007F04D0802EDC
:1028500007D94FF003040AE0802E08D9A02E01D832
:1028600004E001D1022402E0702E00D101240848C6
:10287000016821F0070121430160006800F00700B2
:10288000A04201D00120F8BD0020F8BD0010024098
:10289000002002407047FEF7B5B910B5ACB0442136
:1028A00015A8FDF7CCFC142126A8FDF7C8FC54217F
:1028B0006846FDF7C4FC1020159001200024CDE9E6
:1028C0001B0470201D901F9415A8FEF7B3FC0F2069
:1028D000CDE9260428942994002126A82A94FEF7FD
:1028E000A3FB43200090089409940B946846FEF7DC
:1028F00055FA4FF40070FEF715FA2CB010BD000029
:102900000D48016841F4700101600C48016841F014
:1029100001010160002181600268094B1A400260D8
:102920008214C260026822F480220260816102493E
:10293000C00380390860704788ED00E00010024055
:10294000FFFFF6EA70B59AB064216846FDF777FCA0
:102950002C4C2D4D4FF6F57620684FF000010028E5
:10296000284612D0FFF75AFAA0602868016A314061
:1029700001622868016A0162002020606068A16825
:10298000884211DD6068A16810E0FFF747FA6060D7
:102990002868016A314001622868016A41F0020139
:1029A00001620120206025E0A0686168DFED170A60
:1029B000401A00EE100AB8EEC00A84ED030A94ED46
:1029C000030A80EE201A84ED041A94ED040A10EE36
:1029D000100AFDF723FD41EC100B0DA153EC102B59
:1029E000684600F0EBFB4FF0FF33642269460D4868
:1029F000FFF7A6FA0448FFF764F80348FFF761F809
:102A00001AB070BD08000020780000200000684265
:102A100064697374616E63653A20252E3466200DF7
:102A20000A0000007801002070B50268164B4FF0D4
:102A30008046984201D0B04203D122F070044A6827
:102A40002243124C124D984205D0B04203D0A0420E
:102A500001D0A84203D122F44076CA6832434E69BD
:102A600022F08002324302608A68C2620A6882628F
:102A7000984203D0A04201D0A84201D10969016364
:102A80000121416170BD0000002C01400040014067
:102A90000044014010B5846842EA032224F47F44D4
:102AA0000A432243826010BD826822F070020A430A
:102AB00042F0070181607047F0B5026A22F001021E
:102AC0000262056A43688269154C25F002052240BE
:102AD0000C6822F0030214438A68134E2A43114DF6
:102AE000124FA84203D0B04201D0B84206D122F022
:102AF000080CCA6842EA0C0222F00402A84203D081
:102B0000B04201D0B84205D14D6923F440731D4352
:102B10008B692B4343608461496841630262F0BD65
:102B20008FFFFEFF002C01400040014000440140A7
:102B300030B5026A22F010020262046A42688369B8
:102B4000154D2B400D6823F4407343EA052524F00E
:102B500020038C6843EA0413104CA04207D1CC68D0
:102B600023F0800343EA041323F0400305E00C4CF8
:102B7000A04202D00B4CA04207D14C6922F4406223
:102B800042EA84028C6942EA8402426085614968B3
:102B90008163036230BD0000FF8FFFFE002C014007
:102BA000004001400044014030B5026A22F48072C6
:102BB0000262046A4268C369144D2B400D6823F019
:102BC00003031D4324F400738C6843EA0423104C70
:102BD000A04207D1CC6823F4006343EA042323F422
:102BE000806305E00B4CA04202D00B4CA04207D101
:102BF0004C6922F4405242EA04128C6942EA0412FF
:102C00004260C5614968C163036230BD8FFFFEFF4A
:102C1000002C0140004001400044014030B5026AF0
:102C200022F480520262046A4268C3690F4D24F4A0
:102C300000542B400D6823F4407343EA05238D684C
:102C400044EA05340A4DA84205D00A4DA84202D0F4
:102C5000094DA84204D14D6922F4804242EA85120E
:102C60004260C36149680164046230BDFF8FFFFEAA
:102C7000002C0140004001400044014030B5026A90
:102C800022F480320262046A4268436D0E4D2B408A
:102C90000D681D4324F400330C8943EA04430B4CB4
:102CA000A04205D00A4CA04202D00A4CA04204D156
:102CB0004C6922F4803242EA042242604565496848
:102CC0008165036230BD00008FFFFEFF002C0140D4
:102CD000004001400044014030B5026A22F48012F5
:102CE0000262046A4268436D0E4D24F400142B40C6
:102CF0000D6843EA05230D8944EA05540A4DA842AC
:102D000005D00A4DA84202D0094DA84204D14D6910
:102D100022F4802242EA8522426043654968C16507
:102D2000046230BDFF8FFFFE002C014000400140D7
:102D30000044014010B5036A046A24F001040462EF
:102D4000846924F0F00444EA021423F00A020A43DE
:102D50008461026210BD000070B5046A24F00104B1
:102D600004628469056A0E4EB04205D0B0F1804F0E
:102D700002D00C4EB04203D124F00304144301E00E
:102D800044F001041A0724F0F00444EA126225F02A
:102D90000A0301F00A0119438261016270BD00005B
:102DA000002C01400040014010B5036A23F01003DD
:102DB00003628369046A23F4704343EA023224F015
:102DC000A00343EA01118261016210BD30B5046ABB
:102DD00024F0100404628469056A24F4407444EA0F
:102DE000022222F470444FF6FF7202EA03322243B9
:102DF000A02425F0A00304EA0111194382610162B5
:102E000030BD90F82410C90706D001684A68836A6B
:102E100022F400321A434A6090F82410890706D53C
:102E200001684A68C36A22F480321A434A6090F803
:102E30002410490706D501684A68036B22F48022F2
:102E40001A434A6090F82410090706D501684A68B9
:102E5000436B22F400421A434A6090F82410C906DA
:102E600006D501688A68836B22F480521A438A600F
:102E700090F82410890606D501688A68C36B22F48D
:102E800000521A438A6090F82410490611D501684F
:102E90004A68036C22F480121A434A60016CB1F54F
:102EA000801F06D101684A68436C22F4C0021A43AD
:102EB0004A6090F82410090606D501684A68806CBB
:102EC00022F4002202434A607047F8B50026044607
:102ED000C667FDF75BFD0546206800686FF07E471A
:102EE000000708D52B4600224FF40011204600971A
:102EF00000F032F960B92068006840070AD52B4617
:102F000000224FF480012046009700F025F908B117
:102F10000320F8BD20206067A06784F8706000205F
:102F2000F8BD00002DE9F04104460268806823697D
:102F3000E5691843636900272B4318437D491368EB
:102F40007D4D2B400343136020684268E36822F400
:102F500040521A4342602268A0698A4201D0236A23
:102F60001843936823F4306303439360734A2368E0
:102F7000734893420DD1D0F8880010F0030006D0BA
:102F8000012838D0022834D0032821D135E001258A
:102F90001FE06C4A93420BD1D0F8880010F00C006F
:102FA00025D0042827D0082823D00C2810D124E0CD
:102FB0008B420DD1D0F8880010F4406017D0B0F5E6
:102FC000806F18D0B0F5006F13D0B0F5406F14D0FB
:102FD00010255D4A00264FF400408B4245D175B163
:102FE000022D0FD0042D0FD0082D18D10FE0002591
:102FF000EFE70225EDE70425EBE70825E9E7FEF713
:10300000A3F803E0104602E0FEF7C2F8A8B3626836
:1030100002EB4201814202D8B0EB023F01D9012705
:1030200075E0DFF828815DB1022D0CD0042D13D09E
:10303000082DF4D150082905401846F1000105E09B
:10304000FEF782F80AE050084149F5E70023FDF752
:10305000BBF8A0F5407156E0FEF79AF86268010EE1
:103060000302500818187141F0E7E1694FF6EF7854
:1030700081422FD1092DD2D200E048E0DFE805F0EF
:1030800006092005230505052600C8E7FEF75CF8BC
:1030900001E0FEF76BF84100D4F8040001EB5001A9
:1030A000B1FBF0F080B2A0F110014145B7D84FF666
:1030B000F0710140C0F3420001432068C16026E086
:1030C00024496068EAE7FEF763F8E4E74FF48031EB
:1030D0006068E3E7092DA2D2DFE805F006091E05C6
:1030E0002205050525009AE7FEF72EF801E0FEF718
:1030F0003DF80146606801EB500100BFB1FBF0F004
:1031000080B2A0F11001414589D82168C8602666C7
:1031100038466666BDE8F081606802EB5001EDE775
:10312000FEF736F8E5E7616800EB5100B0FBF1F01F
:10313000E6E7000000800040F369FFEF003801403F
:1031400000100240004400400024F400FFFC0F0087
:10315000000024F40048E8012DE9F04198461746A4
:103160000E460446069D08E0681C06D0FDF70EFCDE
:10317000A0EB0800A8420BD855B12068C06936EA18
:10318000000017D00020B842EED00020BDE8F0814A
:103190002068016821F4D07101602068816821F005
:1031A0000101816020206067A067002084F8700022
:1031B0000320EBE70120E6E7FEE700000FB4084B31
:1031C00010B504A902AA039800F0F2F8044602A977
:1031D000002000F073FC204610BC5DF814FB0000DA
:1031E000BD3A00080907090E002804DB00F1E020C1
:1031F00080F80014704700F00F0000F1E02080F824
:10320000141D704702E008C8121F08C1002AFAD135
:1032100070477047002001E001C1121F002AFBD156
:10322000704700002DE9FF5F82B00021DDE9043026
:10323000020DDDF840B0034318D044F61050A2F25E
:10324000FF3242431514119801281FD0A5EB0B0043
:10325000401C5FEA000A4FF000064E4FDFF838913D
:10326000B046504615D5CAF1000413E01198012468
:103270004AA3012801D16FEA0B010298119AC0E913
:103280000031C0E9024206B000F08EB8CBF1000078
:10329000DFE704460021404A491842EB0450CDE9DB
:1032A000001012E0E00707D032463B464046494650
:1032B000FCF7D0FF8046894632463B461046194609
:1032C000FCF7C8FF06460F466410002CEAD1DDE982
:1032D0000401DDE90023BAF1000F06DAFCF7BAFFBA
:1032E00042464B46FCF7B6FF05E0FDF728F842469C
:1032F0004B46FDF724F804460E460022284BFDF706
:10330000F9F903D84FF0FF30014607E00022254BC2
:1033100020463146FDF727F9FDF7D4F9102409E0DE
:10332000002C0ADB0A220023FCF74EFF039B3032FD
:103330001A55641E50EA0102F2D1641C039AC4F1CA
:1033400011031444119A012A03D0012208430DD11C
:103350000AE0084304D000204FF0110B119072E7EF
:10336000A3EB0B056D1E0DE05B4504DD4FF0000285
:1033700005F1010504E003DA4FF00002A5F10105B3
:10338000002AECD002981199C0E90231C0E9004549
:1033900079E70000000014400000F03F300000001A
:1033A0000000F0430000E03F30BCBDE8C09F0000DB
:1033B0002DE9FF4F95B09A46884606460025EEE176
:1033C000252877D100242746F94A0121039400E0FB
:1033D000044316F8013F203B01FA03F01042F7D1F5
:1033E00030782A2811D06FF02F033078A0F1300206
:1033F000092A16D8039A44F0020402EB820203EB76
:1034000042021044761C0390EFE758F8042B039215
:10341000002A03DA504244F40054039044F00204BA
:10342000761C30782E2816D116F8010F44F00404CB
:103430002A280DD06FF02F023078A0F13003092B2D
:1034400009D807EB870302EB4303C718761CF3E7A1
:1034500058F8047B761C30786C280FD006DC4C289A
:1034600017D068280DD06A2814D104E0742810D031
:103470007A280FD10DE044F400140AE044F48014DB
:1034800001E044F440147278824202D104F58014C1
:10349000761C761C307866280BD013DC582877D041
:1034A00009DC002875D04528F6D04628F4D04728F6
:1034B0001AD193E118E0632835D0642879D06528C3
:1034C00012D18BE1702873D008DC6728F1D069280D
:1034D0006FD06E280DD06F2806D1ACE073282CD0A9
:1034E000752874D0782853D05246179990476D1C90
:1034F00054E1C4F30250022809D003280DD0D8F8B3
:10350000001004280DD00D6008F1040846E1D8F839
:103510000010EA17C1E90052F6E7D8F800100D8054
:10352000F2E70D70F0E718F8041B8DF8001000208A
:103530008DF80100EB46012003E058F804BB4FF082
:10354000FF3061074FF0000102D40DE009F10101E5
:103550008946B9420FDA8145F8DB1BF809100029CA
:10356000F4D108E009F1010189468142FADB1BF838
:1035700009100029F6D103985346A0EB090721460C
:103580003846179A00F083FA284400EB090507E053
:1035900044E008E10DE01BF8010B524617999047F3
:1035A000B9F10109F7D2534621463846179AF2E09D
:1035B00039E00A21C4F302524FF0000B0091022AB5
:1035C00006D058F8040BC117032A09D00AE023E0FB
:1035D00008F1070020F00702F2E80201904605E03A
:1035E00000B2C117042A01D140B2C117002906DA7E
:1035F0000A460021404261EB02012D2202E0220531
:1036000004D52B228DF80420012203E0E20701D02B
:103610002022F7E7914657E00A2100E010214FF001
:10362000000B00910BE010214FF0000B44F004045C
:103630000827009103E008204FF0000B0090C4F32E
:103640000252022A05D058F8040B0021032A08D0A0
:1036500008E008F1070020F00702F2E802019046B6
:1036600003E080B2042A00D1C0B24FF00009220763
:103670002AD53278702A07D0DDF800C08CF0100C03
:103680005CEA0B0C05D00EE040228DF804200122EC
:1036900008E050EA010306D030238DF804308DF89D
:1036A000052002229146009B83F0080353EA0B0396
:1036B0000AD150EA010201D1620705D530228DF806
:1036C00004204FF001097F1E3278582A04D039A215
:1036D0000C920CAA02920BE03BA2F9E75B46009A1F
:1036E000FCF772FD0C9B9B5C029A521E02921370B7
:1036F00050EA0102F2D1029804A9081A00F1200B45
:10370000600702D524F4803400E001275F4502DD24
:10371000A7EB0B0000E0002000EB0B0100900398EA
:103720004944401A0390E00306D453462146179AB1
:10373000039800F0ACF90544002706E001A85246C2
:10374000C05D179990476D1C7F1C4F45F6DBE00369
:103750000CD553462146179A039800F098F9054472
:1037600004E030205246179990476D1C0099481E7E
:1037700000900029F5DC08E0029802995246007892
:10378000491C0291179990476D1CBBF10001ABF1E8
:10379000010BF1DC5BE100F068F90544761C307840
:1037A00000287FF40DAE19B0284600F05BB9000088
:1037B0000928010030313233343536373839616207
:1037C00063646566000000003031323334353637CB
:1037D000383941424344454600000000600700D4A8
:1037E000062708F1070020F00700F0E802238046D2
:1037F00003F0004C5FEA0C0001D097A009E020051F
:1038000001D596A005E0E00701D095A001E0AFF258
:103810004C001390307823F0004365280CD006DC70
:10382000452809D046281DD047287FD13BE066288F
:1038300018D067287AD136E00021112F01DB112042
:1038400000E0781CCDE9000104A90CA8FFF7EAFC10
:10385000DDE90D010C9A4FF0000B07F10109109200
:1038600000914EE04FF000400097CDE9011004A90F
:103870000CA8FFF7D7FCDDE90D020C9B0F994FF068
:10388000000B91461093009211B9791C00EB0109CD
:10389000B7EB090003D4C0F1FF3B07F10109A9EB25
:1038A0000700019042E0012F00DA01270021112FCB
:1038B00001DD112000E03846CDE9000104A90CA883
:1038C000FFF7B0FCDDE90D010C9A00914FF0000B01
:1038D000B946109221070FD4009A4A4503DA91465F
:1038E00001E0A9F10109B9F1010F05DD109AA9F173
:1038F0000101515C3029F4D0B84202DA10F1040F12
:1039000003DA0121CDE9011010E0002803DC834433
:10391000A9EB000102E0411C494500DD8946A0EB0E
:103920000B00401C01904FF000400290200705D48E
:103930000198484502DB4FF0FF30019000208DF8E0
:103940004B0002980DF14B07B0F1004F25D002203B
:103950000C902B200D90029800280CDA4042029027
:103960002D200D9007E00A210298FCF76AFD303106
:10397000029007F8011D0C99481E0C900029F2DCFA
:1039800002980028EFD1791E0D980870307800F069
:10399000200040F0450007F8020D11A8C01BC01D13
:1039A00002901398007800B1012000EB0901019802
:1039B00001EBE071029801440398401A401E039005
:1039C000E00306D453462146179A039800F05FF8A7
:1039D00005441398007818B15246179990476D1C0A
:1039E000E00323D553462146179A039800F04FF879
:1039F00005441BE0BBF1000F07DB0098584504DDD0
:103A00001098179910F80B0001E0179930205246D2
:103A1000904701980BF1010B401E05F10105019043
:103A200004D12E205246179990476D1CB9F1000120
:103A3000A9F10109DEDC05E017F8010B52461799E0
:103A400090476D1C0299481E02900029F4DC5346F1
:103A50002146179A03989EE62D0000002B000000D7
:103A60002000000030BCBDE8C08F2DE9F0410446C5
:103A700000251E461746880404D405E03946202058
:103A8000B0476D1C641EF9D52846BDE8F0812DE9CC
:103A9000F041044600251E469046C80301D5302754
:103AA00000E02027880404D505E041463846B047A9
:103AB0006D1C641EF9D52846BDE8F0810A68531CC8
:103AC0000B6010707047000010B553EC112B51ECD7
:103AD000100BFCF734FC9FED041B53EC112BFCF78F
:103AE000B9FB41EC100B10BD0000000000408F40FE
:103AF0000EB5FDF78FF8FEF7D0FEFEF7F3FCFEF7EC
:103B000059FDFEF7D9FDFEF733FDFEF791FDFEF7F7
:103B1000BDFD3D4C0127DFF8F4803A4620214046A8
:103B20002760FCF72DFF4FF400694FF0904A6D4677
:103B3000BE1E37A0D0E90010CDE9001036A0006805
:103B400002903220FCF73CFE49465046FCF713FF3A
:103B50006060206840B30128EBD160680028E8D19C
:103B6000012220214046FCF70BFF33460122694623
:103B70002A48FEF7E5F9334601220DF1080B2748E4
:103B80000DF10A01FEF7DCF933460122691C2348D6
:103B9000FEF7D6F9334601220BF102011F48FEF76A
:103BA000CFF900202060C4E760680128C1D100225D
:103BB00020214046FCF7E4FE3346012269461748BF
:103BC000FEF7BEF90A20FCF7FBFD3346012202A9ED
:103BD0001248FEF7B5F933460122691C0F48FEF77B
:103BE000AFF93346012202A90C48FEF7A9F99FED6F
:103BF0000C1B9FED0D0BFFF767FF4FF47A70FCF77E
:103C0000DFFD276095E70000000000200004004869
:103C1000C1C9C1C9C000000014200000F800002084
:103C2000CDCCCCCCCCCCF43F000000000000F03F69
:103C3000000000000000000001020304060708095C
:103C4000A0860100400D0300801A060000350C001C
:103C500040420F0080841E0000093D0000127A00DF
:103C60000024F40000366E010048E801006CDC021C
:103C70000000000001020304983C0008000000203E
:103C80002C00000004320008C43C00082C00002076
:103C9000CC05000014320008000000000000000005
:103CA0000000000000000000000000000000000014
:103CB00000000000100000000100000000000000F3
:043CC00000093D00BA
:040000050800018D61
:00000001FF
